:1000000098C30000AEC30000ACC30000AAC3000048
:10001000A8C30000A6C30000A4C30000A2C3000040
:10002000A0C300009EC300009CC300009AC3000050
:1000300098C3000096C300000C94BA0892C3000055
:1000400090C300008EC300008CC300008AC3000070
:1000500088C3000086C3000084C3000082C3000080
:1000600080C300007EC300007CC300007AC3000090
:1000700078C3000076C3000074C3000072C30000A0
:1000800070C300006EC300006CC300006AC30000B0
:100090000C945F080C949E0864C3000062C30000C7
:1000A00060C300005EC300005CC300005AC30000D0
:1000B00058C3000056C3000054C300000C949E0BAC
:1000C00050C300004EC300004CC300004AC30000F0
:1000D00048C3000046C3000044C3000042C3000000
:1000E00040C300003EC300003CC300003AC3000010
:1000F00038C3000036C3000034C3000032C3000020
:1001000030C300002EC300002CC300002AC300002F
:10011000B3C70000F7C7000024C3000022C30000DB
:1001200020C300001EC300001CC300001AC300004F
:1001300018C300000C94710914C3000012C300001E
:1001400010C300000EC300000CC300000AC300006F
:1001500008C3000006C3000004C3000002C300007F
:1001600000C30000FEC20000FCC20000FAC2000092
:10017000F8C20000F6C20000F4C20000F2C20000A3
:100180000C94B20BEEC20000ECC20000EAC2000008
:10019000E8C20000E6C20000E4C20000E2C20000C3
:1001A000E0C20000DEC20000DCC20000DAC20000D3
:1001B000D8C20000D6C20000D4C20000D2C20000E3
:1001C000D0C20000CEC20000CCC20000CAC20000F3
:1001D000C8C20000C6C20000C4C20000C2C2000003
:1001E000C0C20000BEC20000BCC20000BAC2000013
:1001F000B8C20000B6C20000B4C20000AB09B10929
:10020000CE095D0AA80AEB0A120B4F0BB80EC00EFE
:10021000C70ED00ED70EDE0EE50EF50E050F150F2C
:100220006D0F6D0F6D0F6D0F6D0F6D0F6D0F250F36
:10023000350F450F550F580F5B0F5E0F610F640FA1
:10024000670FD7129112D8129412D812D812D8125E
:10025000D812D812D812D812D812D812D812D8124E
:10026000D812D812D812D812D812D812D812D8123E
:1002700087127D127912851273129F12D812AA1258
:10028000D812D812D812D8128F12AD12AB1289120E
:10029000A3128B1298129012B712CF12B512A1129C
:1002A000D812D812D812D812D812D812D812D812FE
:1002B0008E12D8127712B3127512D812D812D81221
:1002C0006212D812D812D812D812D8127B12D812B1
:1002D000A7128D129B12D812C2124572726F723A17
:1002E00020496E636F727265637420757365206F49
:1002F0006620636F6D6D616E642E0D0A004572722B
:100300006F723A20496E636F727265637420757301
:1003100065206F6620636F6D6D616E642E0D0A003F
:100320004572726F723A20496E636F7272656374C0
:1003300020757365206F6620636F6D6D616E642E2E
:100340000D0A004572726F723A20496E636F7272C5
:1003500065637420757365206F6620636F6D6D61D2
:100360006E642E0D0A004572726F723A20496E63F8
:100370006F727265637420757365206F6620636F9A
:100380006D6D616E642E0D0A004572726F723A20B7
:10039000496E636F727265637420757365206F6652
:1003A00020636F6D6D616E642E0D0A004572726F71
:1003B000723A20496E636F7272656374207573655B
:1003C000206F6620636F6D6D616E642E0D0A0045AF
:1003D00072726F723A20496E636F72726563742035
:1003E000757365206F6620636F6D6D616E642E0D91
:1003F0000A004572726F723A20496E636F727265BD
:10040000637420757365206F6620636F6D6D616E18
:10041000642E0D0A004572726F723A20496E636F46
:10042000727265637420757365206F6620636F6DEB
:100430006D616E642E0D0A004572726F723A20492A
:100440006E636F727265637420757365206F6620CA
:10045000636F6D6D616E642E0D0A004572726F726E
:100460003A20496E636F72726563742075736520FC
:100470006F6620636F6D6D616E642E0D0A004572AC
:10048000726F723A20496E636F7272656374207581
:100490007365206F6620636F6D6D616E642E0D0A4B
:1004A000004572726F723A20496E636F72726563B3
:1004B0007420757365206F6620636F6D6D616E6467
:1004C0002E0D0A004572726F723A20496E636F7288
:1004D0007265637420757365206F6620636F6D6D40
:1004E000616E642E0D0A004572726F723A20496E79
:1004F000636F727265637420757365206F66206325
:100500006F6D6D616E642E0D0A004572726F723AE6
:1005100020496E636F727265637420757365206F16
:100520006620636F6D6D616E642E0D0A00457272F8
:100530006F723A20496E636F7272656374207573CF
:1005400065206F6620636F6D6D616E642E0D0A000D
:100550004572726F723A20496E636F72726563748E
:1005600020757365206F6620636F6D6D616E642EFC
:100570000D0A004572726F723A20556E6B6E6F777E
:100580006E20636F6D6D616E643A20004572726F0C
:10059000723A20496E636F72726563742075736579
:1005A000206F6620636F6D6D616E642E0D0A0045CD
:1005B00072726F723A20496E636F72726563742053
:1005C000757365206F6620636F6D6D616E642E0DAF
:1005D0000A004572726F723A20496E636F727265DB
:1005E000637420757365206F6620636F6D6D616E37
:1005F000642E0D0A004572726F723A20496E636F65
:10060000727265637420757365206F6620636F6D09
:100610006D616E642E0D0A004572726F723A204948
:100620006E636F727265637420757365206F6620E8
:10063000636F6D6D616E642E0D0A004572726F728C
:100640003A20496E636F727265637420757365201A
:100650006F6620636F6D6D616E642E0D0A004572CA
:10066000726F723A20496E636F727265637420759F
:100670007365206F6620636F6D6D616E642E0D0A69
:10068000004572726F723A20496E636F72726563D1
:100690007420757365206F6620636F6D6D616E6485
:1006A0002E0D0A004572726F723A20496E636F72A6
:1006B0007265637420757365206F6620636F6D6D5E
:1006C000616E642E0D0A004572726F723A20556E8B
:1006D0006B6E6F776E20636F6D6D616E643A200094
:1006E0002A537973636F6D70205369676E617475F7
:1006F000726520416E616C797A6572205600457290
:10070000726F723A20436F6D6D616E642062756620
:10071000666572206F76657272756E2C20636F6DE0
:100720006D616E6420746F6F206C6F6E672E0D0AA2
:10073000000011241FBECFEFCDBFDFE3DEBF00E01E
:100740000CBF18BE19BE1ABE1BBE21E3A0E0B0E26A
:1007500001C01D92A435B207E1F70E94ED0C0C9484
:1007600042134ECCCF93DF93F89410920002109274
:100770004002C0E0D1E0188A198A18A219A2E0E864
:10078000F3E010821182E0E9F3E010821182E0E0F0
:10079000F8E0108216820E9469101B8A1BA2109238
:1007A000060910921D2880E4809306067894109222
:1007B0000B20DF91CF9108951F93CF93DF931F926A
:1007C0001F92CDB7DEB70E94FD10E0914631F0E0F8
:1007D000EC5DF64D8081803219F080E293E033C009
:1007E0000E94FD10E0914631F0E0EC5DF64D108185
:1007F0000E94FD10E0914631F0E0EC5DF64D808105
:10080000803219F08DEF92E01EC00E94FD10CE01E3
:1008100001960E949B0D8823C1F0812F8F7D81342A
:1008200039F489819A8180931803909319030DC03C
:10083000823439F489819A81809338039093390303
:1008400004C08AED92E00E948D0D0F900F90DF9111
:10085000CF911F910895CF92DF92EF92FF92E0E047
:10086000F1E035E9328B80E2838B40E058E0448B45
:10087000558B84E499E2848F092E000CAA0BBB0BE4
:10088000C92EDA2EEB2EFF24C58ECD01AA27BB2759
:10089000868F84E6808F22E0218F128E32A380E142
:1008A00083A344A355A382E190E284A7092E000C00
:1008B000AA0BBB0B492F5A2F6B2F772745A7CD01CA
:1008C000AA27BB2786A784E280A721A712A6168A9B
:1008D00016A283818F60838382E88083FF90EF90EC
:1008E000DF90CF900895CF933DDFC1E0C0930B2000
:1008F00010921D281092473180911F28863068F58C
:10090000AADF0E94850F10920A20C0931D28109222
:1009100020081092210880E092E0809326089093AE
:10092000270883E08093060885E280931001809376
:100930002001809110018068809310018091200136
:10094000806880932001809111208823E1F0F89441
:10095000C0930002C09340021BC010921328109253
:1009600014281092222883E0809306090E94850FA4
:1009700080911E2881110E94621081E080934002C4
:10098000809300028DC0F894C0934002C09300028F
:1009900078948DE08093800380938103809390030B
:1009A0008093910380911120882341F020911401BC
:1009B0003091150121303440C8F707C0209124013F
:1009C0003091250121303440C8F790911E289111B3
:1009D00064C09091503191112EC020910C20309123
:1009E0000D2020931A0330931B032091483130913E
:1009F000493120933A0330933B0381110EC080911B
:100A00008103806880938103809187038160809354
:100A1000870380918003806F2DC08091910380684F
:100A200080939103809197038160809397038091D5
:100A30009003806F2FC0209148313091493120932D
:100A40001A0330931B0320910C2030910D2020932A
:100A50003A0330933B03811110C080918103806C75
:100A600080938103809187038160809387038091C5
:100A70008003806B8093800313C080919103806C0E
:100A80008093910380919703816080939703809175
:100A90009003806B8093900303C0CF910C946210FD
:100AA000CF910895CF93DF935DDE10920E20A0E0EA
:100AB000B2E082E08C93E0E4F2E0808314968C93C1
:100AC0001497848311969C911197977F11969C930C
:100AD00011979181977F9183CFE3DFE12197F1F720
:100AE00000C0000091E09C939083109251311092CD
:100AF00052311092152810921628109220289093A7
:100B000019288093060ADF91CF9108951092060A62
:100B100010922028E0E0F2E0818188608183E0E4A7
:100B2000F2E08181886081830895DC01FB011D92E0
:100B30001C9211971082118288E090E0209123028C
:100B4000216020932302209163022160209363029D
:100B500020912002206820932002209160022068CA
:100B6000209360022091230220FFFCCF209163029A
:100B700020FFFCCF20915002309151024D915C91A9
:100B80001197240F351F2D933C931197209110023C
:100B90003091110240815181240F351F2083318310
:100BA000019761F68D919C91119723E09695879519
:100BB0002A95E1F78D939C938081918133E09695FE
:100BC00087953A95E1F780839183089580E180933A
:100BD000A6062AE62A95F1F700C028E080E090E01A
:100BE00030E83093A50645E04A95F1F700004091C2
:100BF000A80646FD0196880F991F3093A60645E08A
:100C00004A95F1F70000215061F720E12093A506F5
:100C100035E03A95F1F700002093A60645E04A95A5
:100C2000F1F700002093A50635E03A95F1F70000B2
:100C30002093A60645E04A95F1F700002AE62A959A
:100C4000F1F700C020E030E83093A50645E04A9572
:100C5000F1F700004091A80646FD0196273011F0FB
:100C6000880F991F3093A60645E04A95F1F70000DA
:100C70002F5F283049F720E12093A50625E02A952B
:100C8000F1F7000090931020809353310895209144
:100C900051313091523180911528909116282817A2
:100CA000390709F449C02091513130915231809176
:100CB0001528909116282817390709F43CC083E5B8
:100CC00016D7E0915131F0915231EE0FFF1FEC5BDE
:100CD000F64D81810CD7E0915131F0915231EE0FF8
:100CE000FF1FEC5BF64D808102D7E0915131F0910E
:100CF0005231EE0FFF1FEE5EFF4D8181F8D6E0917D
:100D00005131F0915231EE0FFF1FEE5EFF4D8081A9
:100D1000EED68091513190915231019680935131AC
:100D2000909352318115944008F4BDCF1092513107
:100D300010925231B8CF089583E7D9C60F93CF935D
:100D4000DF931F92CDB7DEB72FB72983F8941BBE70
:100D5000FC0108ED04BF608389818FBF0F90DF9194
:100D6000CF910F9108950F931F93CF93C82F00E455
:100D700010E0F8016081687F682B80E490E0DEDF9E
:100D8000F80180818C23CF911F910F910895F894E1
:100D900089E4ADD680911228AAD6789408958091DE
:100DA0004431909145310097B1F02091600A309123
:100DB000610A2817390778F0909108078091122866
:100DC000981729F08091080780931228E0DF10928D
:100DD000600A1092610A0895CF93DF931F921F92C9
:100DE000CDB7DEB70E94FD10E0914631F0E0EC5D3A
:100DF000F64D8081803219F08CEA93E009C00E94A0
:100E0000FD10CE01019697D6811104C089E893E0C8
:100E100084D603C08981809324070F900F90DF91BF
:100E2000CF910895CF93DF931F921F92CDB7DEB776
:100E30000E94FD10E0914631F0E0EC5DF64D8081BE
:100E4000803219F086E693E009C00E94FD10CE01C1
:100E5000019671D6811104C083E493E05ED606C08A
:100E600089819A8180934431909345310F900F90FE
:100E7000DF91CF91089590E1909346068093C30847
:100E80008091C20887FFFCCF8091C2088091C3087F
:100E900080E180934506089580E180934606109294
:100EA000C3088091C20887FFFCCF8091C20880915F
:100EB000C30890E1909345060895CF93DF931F9266
:100EC0001F92CDB7DEB70E94FD10E0914631F0E0F1
:100ED000EC5DF64D8081803219F08BE594E009C01D
:100EE0000E94FD10CE01019626D6811104C088E330
:100EF00094E013D60DC085E6FAD589819A81682FD2
:100F00006F7125E0969587952A95E1F742D0EFD548
:100F10000F900F90DF91CF910895CF93DF9300D082
:100F20001F92CDB7DEB70E94FD10E0914631F0E090
:100F3000EC5DF64D8081803219F085E194E011C0BE
:100F40000E94FD10CE010396F6D5811103C082EFF9
:100F500093E007C0CE010196EED5811104C08FEC5D
:100F600093E0DBD50BC08B819C81682F6F7125E0EE
:100F7000969587952A95E1F749814ED02496CDBF65
:100F8000DEBFDF91CF9108958091CF0187FDFCCF27
:100F90000895CF93DF931F921F92CDB7DEB76A8378
:100FA0008983F2DF898120E2829FC00111246A8156
:100FB0006F71862BE0ECF1E080839183128286E0F2
:100FC0008287EF93FF930F932F93EBECF1E008ED03
:100FD00021E004BF20832F910F91FF91EF91848135
:100FE0000F900F90DF91CF910895CEDF8091CF01C8
:100FF00081FF11C086E38093CA01EF93FF930F93A3
:101000002F93EBECF1E008ED21E004BF20832F915A
:101010000F91FF91EF910895CF93DF9300D0CDB75B
:10102000DEB74B836A838983E0DFE0ECF1E093E392
:101030009287898120E2829FC00111246A816F71A9
:10104000862B8083918312824B81448385E3828740
:10105000EF93FF930F932F93EBECF1E008ED21E07A
:1010600004BF20832F910F91FF91EF912396CDBF65
:10107000DEBFDF91CF9108951F920F920FB60F92AE
:10108000112408B60F9218BE0BB60F921BBE8F9399
:10109000EF93FF93E0E8F3E010828781836087831A
:1010A000818180638183FF91EF918F910F900BBEBF
:1010B0000F9008BE0F900FBE0F901F9018951F92B3
:1010C0000F920FB60F92112408B60F9218BE0BB6EE
:1010D0000F921BBE8F93EF93FF93E0E9F3E0108232
:1010E000878183608783818180638183FF91EF9112
:1010F0008F910F900BBE0F9008BE0F900FBE0F90F8
:101100001F9018951F920F920FB60F92112408B6D8
:101110000F9218BE8F9382E080931D281092810356
:1011200080E4809305068AE0809300088F910F90F9
:1011300008BE0F900FBE0F901F9018951F920F9230
:101140000FB60F92112408B60F9218BE8F9382E04B
:1011500080931D281092910380E48093050689E016
:10116000809300088F910F9008BE0F900FBE0F90D4
:101170001F9018951F920F920FB60F92112408B668
:101180000F9218BE09B60F9219BE0BB60F921BBE76
:101190002F933F934F935F936F937F938F939F937F
:1011A000AF93BF93EF93FF93109210011092200121
:1011B000109200081092060884E499D480911D28AA
:1011C00096D420911401309115013695279580E031
:1011D00094E0AC01421B530B409306205093072030
:1011E000209124013091250136952795821B930B80
:1011F00080930420909305201092022010920320E7
:1012000080910220909103208115944008F050C0F5
:1012100080910620909107208115944020F0109233
:1012200006201092072080910420909105208115BE
:10123000944020F01092042010920520E0910420A8
:10124000F0910520CF010196809304209093052012
:10125000EE0FFF1FEE5EFF4D908181819093002085
:101260008093012044D48091002041D4E091062055
:10127000F0910720CF0101968093062090930720DC
:10128000EE0FFF1FEC5BF64D908181819093002063
:10129000809301202CD48091002029D480910220B9
:1012A0009091032001968093022090930320A8CF71
:1012B00010920B20FF91EF91BF91AF919F918F9171
:1012C0007F916F915F914F913F912F910F900BBE46
:1012D0000F9009BE0F9008BE0F900FBE0F901F9089
:1012E00018951F920F920FB60F92112408B60F9205
:1012F00018BE09B60F9219BE0AB60F921ABE0BB6E7
:101300000F921BBEDF92EF92FF920F931F932F93CA
:101310003F934F935F936F937F938F939F93AF937D
:10132000BF93CF93DF93EF93FF934091640250916B
:10133000650220912402309125028091222890E0BC
:101340008830910508F0DAC1FC018827E250FF4F90
:101350008F4F0C943913109213281092142881E0A7
:10136000CBC18091132890911428811562E09607D3
:1013700098F4BC01660F771FFB01EC5BF64D4083D0
:10138000518301968093132890931428FB01EE5EFD
:10139000FF4D20833183B2C182E0AEC183E08093F0
:1013A00022286091132870911428CB01880F991F6F
:1013B000FC01EC5BF64D408351836F5F7F4F609380
:1013C000132870931428FC01EE5EFF4D20833183B7
:1013D00080911E28811192C18DE0809380038093BB
:1013E0008103809390038093910380915031811108
:1013F00030C080910C2090910D2080931A0390931F
:101400001B03809148319091493180933A03909326
:101410003B038091112081110EC08091810380686F
:1014200080938103809187038160809387038091FB
:101430008003806C2FC0809191038068809391031A
:101440008091970381608093970380919003806CD3
:1014500031C0809148319091493180931A03909323
:101460001B0380910C2090910D2080933A03909360
:101470003B0380911120811110C080918103806C09
:10148000809381038091870381608093870380919B
:10149000800380688093800331C180919103806CC8
:1014A000809391038091970381608093970380914B
:1014B000900380688093900321C181E080931D2870
:1014C0008091132890911428BC01660F771FFB01AF
:1014D000EC5BF64D408351830196809313289093E3
:1014E0001428FB01EE5EFF4D20833183811594406B
:1014F00020F0109213281092142880914731811106
:1015000068C080911E28811121C080911120811115
:101510000FC08091870380FFF1C0809180038F709E
:1015200080938003809187038360809387030EC03C
:101530008091970380FFE2C0809190038F70809329
:1015400090038091970383608093970384E0D4C0D5
:101550008091132890911428BC01660F771FFB011E
:10156000EC5BF64D40835183019680931328909352
:101570001428FB01EE5EFF4D2083318381159440DA
:1015800020F0109213281092142880914731811175
:1015900020C080911E288111B1C08091112081113D
:1015A0000AC08091870381FFA9C0809181038F7059
:1015B0008093810309C08091970381FF9FC0809130
:1015C00091038F7080939103809197038360809340
:1015D000970385E091C08091132890911428BC0155
:1015E000660F771FFB01EC5BF64D4083518301963C
:1015F0008093132890931428FB01EE5EFF4D208307
:1016000031838115944020F01092132810921428F1
:1016100086E08093222881E090E0809317289093C1
:1016200018286CC080914731811103C082E08093FB
:101630001D2880911E28882319F082E080931D28A0
:1016400080E4809305068091132890911428BC01B2
:10165000660F771FFB01EC5BF64D408351830196CB
:101660008093132890931428FB01EE5EFF4D208396
:10167000318320911728309118282F5F3F4F2093F6
:101680001728309318288115944020F010921328C1
:10169000109214282115324088F187E02DC0C091A6
:1016A0001328D09114281092060984E420D2809146
:1016B0001D281DD2E12C94E0F92EC11584E0D80735
:1016C00010F0C0E0D0E08E01000F111FF801EE5EB7
:1016D000FF4DD08081810BD28D2D09D2F801EC5BBA
:1016E000F64D1081818103D2812F01D2219621E014
:1016F000E21AF10811F788E080932228FF91EF9118
:10170000DF91CF91BF91AF919F918F917F916F9119
:101710005F914F913F912F911F910F91FF90EF900B
:10172000DF900F900BBE0F900ABE0F9009BE0F9076
:1017300008BE0F900FBE0F901F9018951F920F922A
:101740000FB60F92112408B60F9218BE8F9381E046
:10175000809320288F910F9008BE0F900FBE0F909E
:101760001F9018951F920F920FB60F92112408B672
:101770000F9218BE09B60F9219BE0BB60F921BBE80
:101780002F933F934F935F936F937F938F939F9389
:10179000AF93BF93EF93FF93A1D4FF91EF91BF91CC
:1017A000AF919F918F917F916F915F914F913F91F9
:1017B0002F910F900BBE0F9009BE0F9008BE0F9097
:1017C0000FBE0F901F901895AAECB1E092E09C9389
:1017D000E82FF0E084911C920895DF92EF92FF923F
:1017E0000F931F93CF93DF9380915000826080937B
:1017F00050008091510081FFFCCF81E0B4DA10925B
:1018000004068CE480930006109224068CE08093FA
:1018100020068CE1809344068FEB80934006109263
:10182000640610926006D2E0D09384068AE8809322
:101830008006C0E1C0939606C0939506C0939406B7
:1018400083E98093A006C093A406C093B506C09315
:10185000B206C093B30689E08093E4068BE18093DF
:10186000E006C093F506C093F606C093F706109203
:1018700000078FEF809320071092C40711E01093A8
:10188000C007C093D1071092E007C093F007C09340
:10189000F10780E399DF8093090381E395DF80936B
:1018A000080384E391DF80930B0385E38DDF80934E
:1018B0000A038DE0D82ED092000300E400930103C8
:1018C000C0930203E12C98E0F92EE0921803F09205
:1018D0001903E0921A03F0921B0382E375DF8093F1
:1018E000290383E371DF8093280386E36DDF809310
:1018F0002B0387E369DF80932A03D09220030093B0
:101900002103C0932203E0923803F0923903E0925E
:101910003A03F0923B0380E257DF80930C0281E2AE
:1019200053DF80930D021093000228E1F22EF09213
:101930000102C0E2C0930202D0930402D0932002BD
:1019400001E20093210284E23FDF80934C0285E2B2
:101950003BDF80934D0210934002F0924102C0930E
:101960004202D0934402D0936002D0936802D09395
:101970007002009361021093690281E38093710207
:1019800084E280938101C093820193E29093820369
:1019900080938303909392038093930387E08093D3
:1019A000000A21E732E02093260A3093270A10929A
:1019B000600A1092610A8093400A91E59093C008F2
:1019C0001093F2068093A2007894DF91CF911F913B
:1019D0000F91FF90EF90DF900895CF93DF9300D0A9
:1019E0001F92CDB7DEB7F9DE10920F201092232997
:1019F0001092463110921A2810920E20109221282F
:101A000081E090E080934E3190934F3110925031AD
:101A10001092112010921F2889E09DE38093443199
:101A20009093453110921E281092082010920920A0
:101A300010921B2810921C281092192810920B202B
:101A40008091080780931228A2D900E315E7FF24AC
:101A5000F394AAD380910F20882321F01DD51092F2
:101A60000F2096D380912028882359F1BE016F5F03
:101A70007F4FCE01039659D8809115289091162852
:101A80009C01220F331FF901EC5BF64D4B815C8109
:101A900040835183F901EE5EFF4D49815A814083B5
:101AA00051830196811524E0920728F4809315282C
:101AB0009093162804C010921528109216281092A0
:101AC000202848D36CD98091A40680FF0AC0023038
:101AD000110518F00150110904C0F092A60600E3A8
:101AE00015E780910B208111B4CF70D8B2CF92E06E
:101AF000909385069FEF909360069091880690FDE5
:101B0000FCCF98E0909385068093640690938606B8
:101B100010926406109260060895CF93DF93FC0143
:101B20008491EF012196882319F0E1DFFE01F8CFBF
:101B3000DF91CF910895CF92DF92EF92FF920F93B2
:101B40001F93CF93DF931F92CDB7DEB7E09146315D
:101B5000F0E0EC5DF64D108110531B3010F080E08A
:101B6000E4C06C014AD3E0914631F0E0EC5DF64D03
:101B70000081003221F00A3011F00D3031F4812F54
:101B800090E0F6018083918304C000530B3020F075
:101B9000E6CF33D381E0C9C030D3E0914631F0E0E5
:101BA000EC5DF64D8081803221F08A3011F08D306D
:101BB00079F4802F90E0F60180839183112349F31B
:101BC000F601808191810A96808391831150F6CF2E
:101BD00020EDF22EF80EFAE0FF1508F4C0CF0DD379
:101BE000E0914631F0E0EC5DF64D8081803221F0ED
:101BF0008A3011F08D30D9F48F2D90E0F60180837A
:101C00009183002341F0F601808191810A968083BF
:101C100091830150F6CF112309F4BBCFF6018081E7
:101C200091818C599F4F808391831150F4CF90ED17
:101C3000E92EE80EFAE0FE1508F491CFDED2E0912D
:101C40004631F0E0EC5DF64D8081803221F08A3043
:101C500011F08D3031F58E2D90E0F6018083918367
:101C6000FF2041F0F601808191810A968083918363
:101C7000FA94F6CF002349F0F601808191818C59C6
:101C80009F4F808391830150F5CF112309F481CFB9
:101C9000F6018081918188519C4F808391831150FE
:101CA000F4CF80538B3008F05ACF8983A6D2E091CD
:101CB0004631F0E0EC5DF64D90818981903229F05B
:101CC0009A3019F09D3009F04ACF90E0F6018083F8
:101CD0009183EE2041F0F601808191810A96808304
:101CE0009183EA94F6CFFF2049F0F601808191813B
:101CF0008C599F4F80839183FA94F5CF002349F04C
:101D0000F6018081918188519C4F8083918301509D
:101D1000F5CF112309F43DCFF60180819181805FD9
:101D2000984D808391831150F4CF0F90DF91CF9124
:101D30001F910F91FF90EF90DF90CF900895CF9378
:101D4000DF931F92CDB7DEB789830E94B203109252
:101D5000000210924002898190E0FC01F097EB3183
:101D6000F10508F0BAC08827EA5FFE4F8F4F81C4A3
:101D700082E0809304028093440210921F28ADC039
:101D800083E0809304028093440281E006C084E0F3
:101D9000809304028093440282E080931F289DC0B8
:101DA00085E0809304028093440283E0F6CF86E0CE
:101DB000809304028093440284E0EFCF87E0809315
:101DC00004028093440285E0E8CF82E0809304021D
:101DD0008093440281E08093000981E792E0809340
:101DE00026099093270986E0D8CF82E080930402E9
:101DF0008093440281E08093000982EE94E0809316
:101E000026099093270987E0C8CF82E080930402D7
:101E10008093440281E08093000985E39CE08093F5
:101E200026099093270988E0B8CF82E080930402C6
:101E30008093440281E0809300098AE698E18093D0
:101E400026099093270989E0A8CF82E080930402B5
:101E50008093440281E08093000984ED90E38093B5
:101E60002609909327098AE098CF82E080930402A4
:101E70008093440281E08093000982E19AE7809395
:101E80002609909327098BE088CF82E08093040293
:101E90008093440281E08093000984E294EF809370
:101EA0002609909327098CE078CF81E792E011C052
:101EB0008AE196E00EC085E39CE00BC08AE698E1DB
:101EC00008C089E09DE305C082E19AE702C084E290
:101ED00094EF8093260A9093270A81E08093000272
:101EE000809340020F90DF91CF9108951092600887
:101EF000109261081092212881E080930E200895AD
:101F00001092212810920E200895E0E4F8E010A22B
:101F100011A287E08083109221280895CF93DF9348
:101F20001F921F92CDB7DEB768D1E0914631F0E045
:101F3000EC5DF64D8081803219F080E595E008C0B7
:101F40005CD1CE010196F7DD811104C08DE295E0F0
:101F5000E4DD06C089819A8180934E3190934F31A0
:101F60000F900F90DF91CF910895CF93DF931F9241
:101F70001F92CDB7DEB741D1E0914631F0E0EC5D84
:101F8000F64D8081803219F08AE095E008C035D1A5
:101F9000CE010196D0DD811104C087EE94E0BDDD55
:101FA00030C049815A8140934A3150934B318091DE
:101FB0001B2890911C289A01281B390B209348312B
:101FC000309349318091082090910920840F951F0A
:101FD00080930C2090930D2040915031411109C005
:101FE00080931A0390931B0320933A0330933B038F
:101FF00008C020931A0330931B0380933A039093F5
:102000003B030F900F90DF91CF910895CF93DF9313
:1020100000D01F92CDB7DEB7F0D0E0914631F0E0AE
:10202000EC5DF64D8081803219F084EC94E010C0B4
:10203000E4D0CE0103967FDD811103C081EA94E0F4
:1020400007C0CE01019677DD811104C08EE794E0D0
:1020500064DD32C08B819C8180930820909309209D
:1020600029813A8120931B2830931C2840914A31C2
:1020700050914B31BA01621B730B609348317093DE
:102080004931840F951F80930C2090930D2040912F
:102090005031411109C080931A0390931B03609340
:1020A0003A0370933B0308C060931A0370931B03B9
:1020B00080933A0390933B032496CDBFDEBFDF911C
:1020C000CF910895E0EEF6E084E0828782E0818798
:1020D0000895E0EEF6E0128611860895FADF809109
:1020E0001D288230B0F5F89481E08093473180E478
:1020F0008093050683E080931D2880911F288630F9
:1021000038F5809180038F708093800380918103E4
:102110008F7080938103809190038F7080939003E0
:10212000809191038F7080939103809187038360E6
:1021300080938703809197038360809397038091B6
:102140001120811102C08AE001C089E0809300085B
:102150007894089580910E208823C9F080912128D9
:10216000811115C0209160083091610880914E3135
:1021700090914F312817390750F01092400881E0B4
:102180008093212880911D28823008F4A7CF0895DC
:10219000E4E2F9E280E28E0F11928E13FDCF1092ED
:1021A00046311092232908958091232992E02091AD
:1021B000880622FD1FC01092600690938606E82FC5
:1021C000F0E020916806EC5DF64D20839093850643
:1021D00020812A3031F48093232981E080930F20DD
:1021E00008958F5F803219F7809323298EEF96E050
:1021F00094DCCECF809323290895809146318F318E
:1022000018F48F5F8093463108950F931F93CF93F7
:10221000DF9300D000D0CDB7DEB7E0914631F0E0DB
:10222000EC5DF64D8081803509F46AC088F4843411
:1022300009F471C038F4813409F449C0833409F4D5
:1022400084C0CCC08634F1F08F3409F44BC0C6C0D2
:10225000873509F452C048F4823509F4A9C08335A2
:1022600009F0BCC0CADF83E567C0883509F49CC0AB
:10227000833609F0B3C083E60E943B0719821A82B5
:10228000E0E07DC0BADFCE01059655DC811103C0C8
:1022900084EA96E007C0CE0103964DDC811104C0AC
:1022A00081E896E03ADCA6C0CE01019644DC8111BB
:1022B00003C08EE596E0F6CF86E40E943B078D8151
:1022C0000E943B078B810E943B0789816EC095DF8E
:1022D000CE01019630DC811103C08BE396E0E2CFA2
:1022E00081E423C08ADFCE01019625DC811103C081
:1022F00088E196E0D7CF8FE418C07FDF87E51CC068
:102300007CDFCE01019617DC811103C085EF95E0DB
:10231000C9CF80E50AC071DFCE0101960CDC8111C6
:1023200003C082ED95E0BECF84E40E943B07898123
:102330000E943B078A8139C00E943B07E0914631E9
:10234000F0E0EC5DF64D808130C057DFCE010196A4
:10235000F2DB811103C08FEA95E0A4CF09811A81D5
:10236000CE010196E8DB811103C08CE895E09ACF9D
:102370001127F801ED5DF74D898180833BC089818C
:102380009A818F3F910509F0A8F511E01E0FF0E04A
:10239000ED5DF74D80810E943B0789819A8101960E
:1023A00089839A83E12FEBCF88E50E943B0722C007
:1023B00082E50E943B0787E59ADB19821A828981B0
:1023C0009A818F3F910509F0A8F40E944C078FDB9A
:1023D00089819A81019689839A83F1CF83E795E079
:1023E0009CDBE0914631F0E0EC5DF64D80817FDBD7
:1023F0008AE07DDB2696CDBFDEBFDF91CF911F91B6
:102400000F91089582E473DB84E471DB89E26FDB72
:1024100083E26DDB8DE06BDB8AE069DB10920F20DD
:10242000B7DE80910F20811102C0BEDEFACFE091AD
:102430004631F0E0EC5DF64D8081803989F085E42D
:1024400056DB80E954DB87E452DBE0914631F0E073
:10245000EC5DF64D80814BDB8DE049DB8AE047CBBC
:1024600082E645DB8DE043DB8AE041DB4FEF6DE147
:102470008FE10E940C084FEF6EE18FE10E940C0883
:102480004FEF6FE18FE10E940C0828ED41E02093AF
:10249000340040937900089581E08093A506E0918F
:1024A0004631F0E0EC5DF64DE0818E2F90E0FC01CE
:1024B000BA97EC34F10508F07BC08827EF5DFE4F3A
:1024C0008F4FD7C080EE96E028DB81E310DB8EE2F1
:1024D0000EDB87E30CDB8EE20ADB89E60E943B071A
:1024E0000E944C076EC00C948D070C945D070C94F1
:1024F00073040C9452050C94DC037FDEE0914631AA
:10250000F0E0EC5DF64D80811ACC77DE5DC075DEC3
:1025100074C073DE8BC0EADCF8CCF2CCFFCCDECD2D
:1025200024CD10925031089581E080935031089568
:1025300010921120089581E08093112008950C9449
:1025400047060C94860581E080931E28089510921A
:102550001E2808955BCD0C94EC06809108078093AB
:1025600012280C94C7060C94120747DE4ECE82E068
:102570008093E60680E18093E60681E08093E5069D
:1025800088E00AC081E08093E60688E08093E60652
:1025900082E08093E50680E18093E506089586E574
:1025A000A6DA80911020A3DA809153310CC02ACF93
:1025B00087EC96E0B2DAE0914631F0E0EC5DF64D62
:1025C000808195DA8AE093CAE0914631F0E0EC5DD3
:1025D000F64D8081803281F410DEE0914631F0E0EA
:1025E000EC5DF64D8081813411F484E003C08234C7
:1025F00019F488E0809345060895E0914631F0E0B3
:10260000EC5DF64D8081803281F4F7DDE09146315A
:10261000F0E0EC5DF64D8081813411F484E003C07C
:10262000823419F488E0809346060895E09146319B
:10263000F0E0EC5DF64D80818032D1F4DEDDE0919A
:102640004631F0E0EC5DF64D8081813411F481E09B
:1026500007C0813611F481E009C0823421F482E0A0
:10266000809346060895823619F482E080934506E9
:102670000895EE0FFF1F881F8BBF0790F691E02D86
:082680001BBE1994F894FFCF72
:00000001FF
