:100000000C94F7140C940E150C940E150C940E15FC
:100010000C940E150C940E150C940E150C940E15D4
:100020000C940E150C940E150C940E150C940E15C4
:100030000C940E150C940E150C9473190C940E154B
:100040000C940E150C940E150C940E150C940E15A4
:100050000C948D190C940E150C940E150C940E1511
:100060000C940E150C940E150C940E150C940E1584
:100070000C940E150C940E150C940E150C940E1574
:100080000C940E150C940E150C940E150C940E1564
:100090000C940E150C940E150C940E150C940E1554
:1000A0000C940E150C940E150C940E150C940E1544
:1000B0000C940E150C940E150C940E150C940E1534
:1000C0000C940E150C940E150C940E150C940E1524
:1000D0000C940E150C940E150C940E150C940E1514
:1000E0000C940E150C940E150C940E150C940E1504
:1000F0000C940E150C940E150C940E150C940E15F4
:100100000C940E150C940E150C940E150C940E15E3
:100110000C940E150C940E150C940E150C940E15D3
:100120000C940E150C940E150C940E150C940E15C3
:100130000C940E150C940E150C940E150C940E15B3
:100140000C940E150C940E150C940E150C940E15A3
:100150000C940E150C940E150C940E150C940E1593
:100160000C940E150C940E150C940E150C940E1583
:100170000C940E150C940E150C940E150C940E1573
:100180000C940E150C940E150C940E150C940E1563
:100190000C940E150C940E150C940E150C940E1553
:1001A0000C940E150C940E150C940E150C940E1543
:1001B0000C940E150C940E150C940E150C940E1533
:1001C0000C940E150C940E150C940E150C940E1523
:1001D0000C940E150C940E150C940E150C940E1513
:1001E0000C940E150C940E150C940E150C940E1503
:1001F0000C940E150C940E150C940E15D71BDE1BCB
:10020000E51BEC1BF31BFA1B011C081C0F1C161C26
:10021000771C771C771C771C771C771C771C1D1CA0
:10022000241C2B1C321C391C401C471C4E1C551C0A
:100230005C1C631C6A1C711C2C233023302330236C
:10024000302330233023302330232E233322302316
:100250003722302330233023302330233023302300
:1002600030233023302330233023302330233023F6
:100270003023302308223023232217220F2220226A
:100280000222452224235222FB212A233023302319
:100290002F22192316232622492229223C223122E9
:1002A000302354226D22472227233023302330234A
:1002B00030233023302330232D22302311222123D9
:1002C00005225E2230233023E821302313223023FD
:1002D00030233023152230234E222B22402211239B
:1002E0003C2383223C23CC223C233C2381223C23FD
:1002F0003C233C233C233C233C23D6223C23852225
:100300003C233C23D022FC22D4223C23E822872217
:10031000D222FA220D233C233C233C233C233C23C2
:100320003C233C233C23CE223C233C233C233C2344
:100330003C233C233C233C233C233C233C233C23C5
:100340003C233C233C233C233C233C233C233C23B5
:100350003C233C230F234572726F723A20496E632F
:100360006F727265637420757365206F6620636FAA
:100370006D6D616E642E0D0A004572726F723A20C7
:10038000496E636F727265637420757365206F6662
:1003900020636F6D6D616E642E0D0A004572726F81
:1003A000723A20496E636F7272656374207573656B
:1003B000206F6620636F6D6D616E642E0D0A0045BF
:1003C00072726F723A20496E636F72726563742045
:1003D000757365206F6620636F6D6D616E642E0DA1
:1003E0000A004572726F723A20496E636F727265CD
:1003F000637420757365206F6620636F6D6D616E29
:10040000642E0D0A004572726F723A20496E636F56
:10041000727265637420757365206F6620636F6DFB
:100420006D616E642E0D0A004572726F723A20493A
:100430006E636F727265637420757365206F6620DA
:10044000636F6D6D616E642E0D0A004572726F727E
:100450003A20496E636F727265637420757365200C
:100460006F6620636F6D6D616E642E0D0A004572BC
:10047000726F723A20496E636F7272656374207591
:100480007365206F6620636F6D6D616E642E0D0A5B
:10049000004572726F723A20496E636F72726563C3
:1004A0007420757365206F6620636F6D6D616E6477
:1004B0002E0D0A004572726F723A20496E636F7298
:1004C0007265637420757365206F6620636F6D6D50
:1004D000616E642E0D0A004572726F723A20496E89
:1004E000636F727265637420757365206F66206335
:1004F0006F6D6D616E642E0D0A004572726F723AF7
:1005000020496E636F727265637420757365206F26
:100510006620636F6D6D616E642E0D0A0045727208
:100520006F723A20496E636F7272656374207573DF
:1005300065206F6620636F6D6D616E642E0D0A001D
:100540004572726F723A20496E636F72726563749E
:1005500020757365206F6620636F6D6D616E642E0C
:100560000D0A004572726F723A20496E636F7272A3
:1005700065637420757365206F6620636F6D6D61B0
:100580006E642E0D0A004572726F723A20496E63D6
:100590006F727265637420757365206F6620636F78
:1005A0006D6D616E642E0D0A004572726F723A2095
:1005B000496E636F727265637420757365206F6630
:1005C00020636F6D6D616E642E0D0A004572726F4F
:1005D000723A20496E636F72726563742075736539
:1005E000206F6620636F6D6D616E642E0D0A00458D
:1005F00072726F723A20496E636F72726563742013
:10060000757365206F6620636F6D6D616E642E0D6E
:100610000A004572726F723A20496E636F7272659A
:10062000637420757365206F6620636F6D6D616EF6
:10063000642E0D0A004572726F723A20496E636F24
:10064000727265637420757365206F6620636F6DC9
:100650006D616E642E0D0A004572726F723A204908
:100660006E636F727265637420757365206F6620A8
:10067000636F6D6D616E642E0D0A004572726F724C
:100680003A20496E636F72726563742075736520DA
:100690006F6620636F6D6D616E642E0D0A0045728A
:1006A000726F723A20496E636F727265637420755F
:1006B0007365206F6620636F6D6D616E642E0D0A29
:1006C000004572726F723A20496E636F7272656391
:1006D0007420757365206F6620636F6D6D616E6445
:1006E0002E0D0A004572726F723A20496E636F7266
:1006F0007265637420757365206F6620636F6D6D1E
:10070000616E642E0D0A004572726F723A20496E56
:10071000636F727265637420757365206F66206302
:100720006F6D6D616E642E0D0A004572726F723AC4
:1007300020496E636F727265637420757365206FF4
:100740006620636F6D6D616E642E0D0A00457272D6
:100750006F723A20496E636F7272656374207573AD
:1007600065206F6620636F6D6D616E642E0D0A00EB
:100770004572726F723A20556E6B6E6F776E2063A2
:100780006F6D6D616E643A20002046504741203005
:1007900078002A537973636F6D70204369726375B3
:1007A000697447656172204D4B4949205600457276
:1007B000726F723A20436F6D6D616E642062756670
:1007C000666572206F76657272756E2C20636F6D30
:1007D0006D616E6420746F6F206C6F6E672E0D0AF2
:1007E0000080808181828282838384848485858560
:1007F000868687878788888989898A8A8B8B8B8C6C
:100800008C8C8D8D8E8E8E8F8F90909091919192F9
:100810009293939394949595959696969797989886
:100820009899999A9A9A9B9B9B9C9C9D9D9D9E9E14
:100830009E9F9FA0A0A0A1A1A2A2A2A3A3A3A4A4A3
:10084000A5A5A5A6A6A6A7A7A7A8A8A9A9A9AAAA33
:10085000AAABABACACACADADADAEAEAEAFAFB0B0C5
:10086000B0B1B1B1B2B2B2B3B3B3B4B4B5B5B5B659
:10087000B6B6B7B7B7B8B8B8B9B9B9BABABBBBBBEF
:10088000BCBCBCBDBDBDBEBEBEBFBFBFC0C0C0C185
:10089000C1C1C2C2C2C3C3C3C4C4C4C5C5C5C6C620
:1008A000C6C7C7C7C8C8C8C9C9C9C9CACACACBCBBD
:1008B000CBCCCCCCCDCDCDCECECECECFCFCFD0D05D
:1008C000D0D1D1D1D2D2D2D2D3D3D3D4D4D4D4D5FF
:1008D000D5D5D6D6D6D6D7D7D7D8D8D8D8D9D9D9A6
:1008E000DADADADADBDBDBDBDCDCDCDDDDDDDDDE4E
:1008F000DEDEDEDFDFDFDFE0E0E0E0E1E1E1E1E2FC
:10090000E2E2E2E3E3E3E3E4E4E4E4E5E5E5E5E6AB
:10091000E6E6E6E7E7E7E7E7E8E8E8E8E9E9E9E95E
:10092000E9EAEAEAEAEAEBEBEBEBECECECECECED17
:10093000EDEDEDEDEEEEEEEEEEEFEFEFEFEFEFF0D3
:10094000F0F0F0F0F1F1F1F1F1F1F2F2F2F2F2F394
:10095000F3F3F3F3F3F3F4F4F4F4F4F4F5F5F5F559
:10096000F5F5F6F6F6F6F6F6F6F7F7F7F7F7F7F722
:10097000F7F8F8F8F8F8F8F8F8F9F9F9F9F9F9F9F1
:10098000F9FAFAFAFAFAFAFAFAFAFBFBFBFBFBFBC2
:10099000FBFBFBFBFBFCFCFCFCFCFCFCFCFCFCFC9C
:1009A000FCFDFDFDFDFDFDFDFDFDFDFDFDFDFDFE77
:1009B000FEFEFEFEFEFEFEFEFEFEFEFEFEFEFEFE57
:1009C000FEFEFEFEFFFFFFFFFFFFFFFFFFFFFFFF3B
:1009D000FFFFFFFFFFFFFFFFFFFFFFFFFFFFFFFF27
:1009E000FFFFFFFFFFFFFFFFFFFFFFFFFFFFFFFF17
:1009F000FFFFFFFFFFFFFFFFFFFFFFFFFFFFFEFE09
:100A0000FEFEFEFEFEFEFEFEFEFEFEFEFEFEFEFE06
:100A1000FEFEFEFDFDFDFDFDFDFDFDFDFDFDFDFD03
:100A2000FDFDFCFCFCFCFCFCFCFCFCFCFCFCFBFB06
:100A3000FBFBFBFBFBFBFBFBFAFAFAFAFAFAFAFA0E
:100A4000FAF9F9F9F9F9F9F9F9F9F8F8F8F8F8F81B
:100A5000F8F8F7F7F7F7F7F7F7F6F6F6F6F6F6F62B
:100A6000F5F5F5F5F5F5F5F4F4F4F4F4F4F3F3F342
:100A7000F3F3F3F2F2F2F2F2F2F1F1F1F1F1F0F05C
:100A8000F0F0F0F0EFEFEFEFEFEEEEEEEEEEEDED7B
:100A9000EDEDEDECECECECECEBEBEBEBEBEAEAEA9E
:100AA000EAEAE9E9E9E9E8E8E8E8E8E7E7E7E7E6C4
:100AB000E6E6E6E5E5E5E5E5E4E4E4E4E3E3E3E3EF
:100AC000E2E2E2E2E1E1E1E1E0E0E0E0DFDFDFDF1E
:100AD000DEDEDEDDDDDDDDDCDCDCDCDBDBDBDBDA52
:100AE000DADAD9D9D9D9D8D8D8D7D7D7D7D6D6D688
:100AF000D5D5D5D5D4D4D4D3D3D3D3D2D2D2D1D1C2
:100B0000D1D0D0D0D0CFCFCFCECECECDCDCDCCCCFE
:100B1000CCCCCBCBCBCACACAC9C9C9C8C8C8C7C73D
:100B2000C7C6C6C6C5C5C5C4C4C4C3C3C3C2C2C282
:100B3000C1C1C1C0C0C0BFBFBFBEBEBEBDBDBDBCC8
:100B4000BCBCBBBBBBBABABAB9B9B9B8B8B8B7B70D
:100B5000B7B6B6B5B5B5B4B4B4B3B3B3B2B2B2B157
:100B6000B1B0B0B0AFAFAFAEAEAEADADACACACABA4
:100B7000ABABAAAAAAA9A9A8A8A8A7A7A7A6A6A5F1
:100B8000A5A5A4A4A4A3A3A2A2A2A1A1A1A0A09F41
:100B90009F9F9E9E9E9D9D9C9C9C9B9B9B9A9A9991
:100BA00099999898979797969696959594949493E3
:100BB0009392929291919190908F8F8F8E8E8D8D36
:100BC0008D8C8C8B8B8B8A8A8A8989888888878789
:100BD00086868685858484848383838282818181DD
:100BE00080807F7F7F7E7E7D7D7D7C7C7C7B7B7A31
:100BF0007A7A797978787877777676767575757484
:100C000074737373727271717170706F6F6F6E6ED7
:100C10006E6D6D6C6C6C6B6B6A6A6A696969686829
:100C2000676767666665656564646463636262627C
:100C300061616160605F5F5F5E5E5E5D5D5C5C5CCC
:100C40005B5B5B5A5A59595958585857575656561C
:100C5000555555545454535352525251515150506A
:100C6000504F4F4E4E4E4D4D4D4C4C4C4B4B4B4AB6
:100C70004A49494948484847474746464645454501
:100C80004444444343434242424141414040403F47
:100C90003F3F3E3E3E3D3D3D3C3C3C3B3B3B3A3A8C
:100CA0003A393939383838373737363636353535D1
:100CB0003434343433333332323231313130303012
:100CC000302F2F2F2E2E2E2D2D2D2D2C2C2C2B2B4F
:100CD0002B2B2A2A2A292929292828282727272788
:100CE00026262625252525242424242323232322C0
:100CF000222221212121202020201F1F1F1F1E1EF4
:100D00001E1E1D1D1D1D1C1C1C1C1B1B1B1B1B1A22
:100D10001A1A1A191919191818181818171717174D
:100D20001616161616151515151514141414141375
:100D30001313131312121212121111111111101098
:100D4000101010100F0F0F0F0F0E0E0E0E0E0E0DB7
:100D50000D0D0D0D0D0C0C0C0C0C0C0B0B0B0B0BD3
:100D60000B0B0A0A0A0A0A0A0A09090909090909E8
:100D700008080808080808080707070707070707FB
:100D80000706060606060606060605050505050508
:100D9000050505050404040404040404040404040F
:100DA0000303030303030303030303030303030214
:100DB0000202020202020202020202020202020213
:100DC000020202020101010101010101010101010F
:100DD0000101010101010101010101010101010103
:100DE00001010101010101010101010101010101F3
:100DF00001010101010101010101010101010202E1
:100E000002020202020202020202020202020202C2
:100E100002020203030303030303030303030303A5
:100E20000304040404040404040404040405050580
:100E3000050505050505050506060606060606065A
:100E4000060707070707070707080808080808082C
:100E50000809090909090909090A0A0A0A0A0A0AFC
:100E60000B0B0B0B0B0B0C0C0C0C0C0C0D0D0D0DC4
:100E70000D0D0D0E0E0E0E0E0F0F0F0F0F0F10108B
:100E8000101010111111111111121212121213134C
:100E90001313131414141414151515151616161609
:100EA0001617171717171818181819191919191AC2
:100EB0001A1A1A1B1B1B1B1C1C1C1C1D1D1D1D1E76
:100EC0001E1E1E1F1F1F1F20202020212121212226
:100ED00022222223232323242424252525252626D4
:100EE0002626272727282828282929292A2A2A2A7E
:100EF0002B2B2B2C2C2C2C2D2D2D2E2E2E2E2F2F24
:100F00002F303030313131323232323333333434C6
:100F10003435353536363637373737383838393966
:100F2000393A3A3A3B3B3B3C3C3C3D3D3D3E3E3E04
:100F30003F3F3F404040414141424242434343449E
:100F40004444454545464647474748484849494936
:100F50004A4A4A4B4B4B4C4C4D4D4D4E4E4E4F4FCB
:100F60004F50505051515252525353535454545560
:100F70005556565657575758585959595A5A5A5BF1
:100F80005B5B5C5C5D5D5D5E5E5E5F5F6060606183
:100F90006162626263636364646565656666666711
:100FA0006768686869696A6A6A6B6B6B6C6C6D6D9F
:100FB0006D6E6E6F6F6F707070717172727273732D
:100FC00074747475757576767777777878797979BA
:100FD0007A7A7B7B7B7C7C7C7D7D7E7E7E7F7F8046
:100FE00080FFFFFFFFFFFFFFFFFFFFFFFFFFFFFF90
:100FF000FFFFFFFFFFFFFFFFFFFFFFFFFFFFFFFF01
:10100000FFFFFFFFFFFFFFFFFFFFFFFFFFFFFFFFF0
:10101000FFFFFFFFFFFFFFFFFFFFFFFFFFFFFFFFE0
:10102000FFFFFFFFFFFFFFFFFFFFFFFFFFFFFFFFD0
:1013E000FF000000000000000000000000000000FE
:1013F00000000000000000000000000000000000ED
:1014000000000000000000000000000000000000DC
:1014100000000000000000000000000000000000CC
:1014200000000000000000000000000000000000BC
:1017E0000080808081818181828282828383838361
:1017F0008484848485858585868686868787878791
:1018000088888888898989898A8A8A8A8B8B8B8B40
:101810008C8C8C8C8D8D8D8D8E8E8E8E8F8F8F8FF0
:1018200090909090919191919292929293939393A0
:101830009494949495959595969696969797979750
:1018400098989898999999999A9A9A9A9B9B9B9B00
:101850009C9C9C9C9D9D9D9D9E9E9E9E9F9F9F9FB0
:10186000A0A0A0A0A1A1A1A1A2A2A2A2A3A3A3A360
:10187000A4A4A4A4A5A5A5A5A6A6A6A6A7A7A7A710
:10188000A8A8A8A8A9A9A9A9AAAAAAAAAAABABABC1
:10189000ABACACACACADADADADAEAEAEAEAFAFAF74
:1018A000AFB0B0B0B0B1B1B1B1B2B2B2B2B3B3B324
:1018B000B3B4B4B4B4B5B5B5B5B6B6B6B6B7B7B7D4
:1018C000B7B8B8B8B8B9B9B9B9BABABABABBBBBB84
:1018D000BBBCBCBCBCBDBDBDBDBEBEBEBEBFBFBF34
:1018E000BFC0C0C0C0C1C1C1C1C2C2C2C2C3C3C3E4
:1018F000C3C4C4C4C4C5C5C5C5C6C6C6C6C7C7C794
:10190000C7C8C8C8C8C9C9C9C9CACACACACBCBCB43
:10191000CBCCCCCCCCCDCDCDCDCECECECECFCFCFF3
:10192000CFD0D0D0D0D1D1D1D1D2D2D2D2D3D3D3A3
:10193000D3D4D4D4D4D5D5D5D5D5D6D6D6D6D7D755
:10194000D7D7D8D8D8D8D9D9D9D9DADADADADBDB07
:10195000DBDBDCDCDCDCDDDDDDDDDEDEDEDEDFDFB7
:10196000DFDFE0E0E0E0E1E1E1E1E2E2E2E2E3E367
:10197000E3E3E4E4E4E4E5E5E5E5E6E6E6E6E7E717
:10198000E7E7E8E8E8E8E9E9E9E9EAEAEAEAEBEBC7
:10199000EBEBECECECECEDEDEDEDEEEEEEEEEFEF77
:1019A000EFEFF0F0F0F0F1F1F1F1F2F2F2F2F3F327
:1019B000F3F3F4F4F4F4F5F5F5F5F6F6F6F6F7F7D7
:1019C000F7F7F8F8F8F8F9F9F9F9FAFAFAFAFBFB87
:1019D000FBFBFCFCFCFCFDFDFDFDFEFEFEFEFFFF37
:1019E000FFFFFFFFFEFEFEFEFDFDFDFDFCFCFCFC1F
:1019F000FBFBFBFBFAFAFAFAF9F9F9F9F8F8F8F84F
:101A0000F7F7F7F7F6F6F6F6F5F5F5F5F4F4F4F47E
:101A1000F3F3F3F3F2F2F2F2F1F1F1F1F0F0F0F0AE
:101A2000EFEFEFEFEEEEEEEEEDEDEDEDECECECECDE
:101A3000EBEBEBEBEAEAEAEAE9E9E9E9E8E8E8E80E
:101A4000E7E7E7E7E6E6E6E6E5E5E5E5E4E4E4E43E
:101A5000E3E3E3E3E2E2E2E2E1E1E1E1E0E0E0E06E
:101A6000DFDFDFDFDEDEDEDEDDDDDDDDDCDCDCDC9E
:101A7000DBDBDBDBDADADADAD9D9D9D9D8D8D8D8CE
:101A8000D7D7D7D7D6D6D6D6D5D5D5D5D4D4D4D4FE
:101A9000D3D3D3D3D2D2D2D2D1D1D1D1D0D0D0D02E
:101AA000CFCFCFCFCECECECECDCDCDCDCCCCCCCC5E
:101AB000CBCBCBCBCACACACAC9C9C9C9C8C8C8C88E
:101AC000C7C7C7C7C6C6C6C6C5C5C5C5C4C4C4C4BE
:101AD000C3C3C3C3C2C2C2C2C1C1C1C1C0C0C0C0EE
:101AE000BFBFBFBFBEBEBEBEBDBDBDBDBCBCBCBC1E
:101AF000BBBBBBBBBABABABAB9B9B9B9B8B8B8B84E
:101B0000B7B7B7B7B6B6B6B6B5B5B5B5B4B4B4B47D
:101B1000B3B3B3B3B2B2B2B2B1B1B1B1B0B0B0B0AD
:101B2000AFAFAFAFAEAEAEAEADADADADACACACACDD
:101B3000ABABABABAAAAAAAAAAA9A9A9A9A8A8A80B
:101B4000A8A7A7A7A7A6A6A6A6A5A5A5A5A4A4A439
:101B5000A4A3A3A3A3A2A2A2A2A1A1A1A1A0A0A069
:101B6000A09F9F9F9F9E9E9E9E9D9D9D9D9C9C9C99
:101B70009C9B9B9B9B9A9A9A9A99999999989898C9
:101B800098979797979696969695959595949494F9
:101B90009493939393929292929191919190909029
:101BA000908F8F8F8F8E8E8E8E8D8D8D8D8C8C8C59
:101BB0008C8B8B8B8B8A8A8A8A8989898988888889
:101BC00088878787878686868685858585848484B9
:101BD00084838383838282828281818181808080E9
:101BE000807F7F7F7F7E7E7E7E7D7D7D7D7C7C7C19
:101BF0007C7B7B7B7B7A7A7A7A7979797978787849
:101C00007877777777767676767575757574747478
:101C100074737373737272727271717171707070A8
:101C2000706F6F6F6F6E6E6E6E6D6D6D6D6C6C6CD8
:101C30006C6B6B6B6B6A6A6A6A6969696968686808
:101C40006867676767666666666565656564646438
:101C50006463636363626262626161616160606068
:101C6000605F5F5F5F5E5E5E5E5D5D5D5D5C5C5C98
:101C70005C5B5B5B5B5A5A5A5A59595959585858C8
:101C800058575757575656565655555555555454F7
:101C90005454535353535252525251515151505024
:101CA00050504F4F4F4F4E4E4E4E4D4D4D4D4C4C54
:101CB0004C4C4B4B4B4B4A4A4A4A49494949484884
:101CC00048484747474746464646454545454444B4
:101CD00044444343434342424242414141414040E4
:101CE00040403F3F3F3F3E3E3E3E3D3D3D3D3C3C14
:101CF0003C3C3B3B3B3B3A3A3A3A39393939383844
:101D00003838373737373636363635353535343473
:101D100034343333333332323232313131313030A3
:101D200030302F2F2F2F2E2E2E2E2D2D2D2D2C2CD3
:101D30002C2C2B2B2B2B2A2A2A2A29292929282803
:101D40002828272727272626262625252525242433
:101D50002424232323232222222221212121202063
:101D600020201F1F1F1F1E1E1E1E1D1D1D1D1C1C93
:101D70001C1C1B1B1B1B1A1A1A1A191919191818C3
:101D800018181717171716161616151515151414F3
:101D90001414131313131212121211111111101023
:101DA00010100F0F0F0F0E0E0E0E0D0D0D0D0C0C53
:101DB0000C0C0B0B0B0B0A0A0A0A09090909080883
:101DC00008080707070706060606050505050404B3
:101DD00004040303030302020202010101010000E3
:101DE00000000000010101010202020203030303DB
:101DF000040404040505050506060606070707078B
:101E000008080808090909090A0A0A0A0B0B0B0B3A
:101E10000C0C0C0C0D0D0D0D0E0E0E0E0F0F0F0FEA
:101E2000101010101111111112121212131313139A
:101E3000141414141515151516161616171717174A
:101E400018181818191919191A1A1A1A1B1B1B1BFA
:101E50001C1C1C1C1D1D1D1D1E1E1E1E1F1F1F1FAA
:101E6000202020202121212122222222232323235A
:101E7000242424242525252526262626272727270A
:101E800028282828292929292A2A2A2A2A2B2B2BBB
:101E90002B2C2C2C2C2D2D2D2D2E2E2E2E2F2F2F6E
:101EA0002F3030303031313131323232323333331E
:101EB00033343434343535353536363636373737CE
:101EC0003738383838393939393A3A3A3A3B3B3B7E
:101ED0003B3C3C3C3C3D3D3D3D3E3E3E3E3F3F3F2E
:101EE0003F404040404141414142424242434343DE
:101EF000434444444445454545464646464747478E
:101F00004748484848494949494A4A4A4A4B4B4B3D
:101F10004B4C4C4C4C4D4D4D4D4E4E4E4E4F4F4FED
:101F20004F5050505051515151525252525353539D
:101F3000535454545455555555555656565657574F
:101F4000575758585858595959595A5A5A5A5B5B01
:101F50005B5B5C5C5C5C5D5D5D5D5E5E5E5E5F5FB1
:101F60005F5F606060606161616162626262636361
:101F70006363646464646565656566666666676711
:101F8000676768686868696969696A6A6A6A6B6BC1
:101F90006B6B6C6C6C6C6D6D6D6D6E6E6E6E6F6F71
:101FA0006F6F707070707171717172727272737321
:101FB00073737474747475757575767676767777D1
:101FC000777778787878797979797A7A7A7A7B7B81
:101FD0007B7B7C7C7C7C7D7D7D7D7E7E7E7E7F7F31
:101FE0008000000000000101010101010101020265
:101FF00002020202020203030303030303030404B5
:102000000404040404040505050505050505060684
:102010000606060606060707070707070707080854
:1020200008080808080809090909090909090A0A24
:102030000A0A0A0A0A0A0B0B0B0B0B0B0B0B0C0CF4
:102040000C0C0C0C0C0C0D0D0D0D0D0D0D0D0E0EC4
:102050000E0E0E0E0E0E0F0F0F0F0F0F0F0F101094
:102060001010101010101111111111111111121264
:102070001212121212121313131313131313141434
:102080001414141414141515151515151515161604
:1020900016161616161617171717171717171818D4
:1020A00018181818181819191919191919191A1AA4
:1020B0001A1A1A1A1A1A1B1B1B1B1B1B1B1B1C1C74
:1020C0001C1C1C1C1C1C1D1D1D1D1D1D1D1D1E1E44
:1020D0001E1E1E1E1E1E1F1F1F1F1F1F1F1F202014
:1020E00020202020202021212121212121212222E4
:1020F00022222222222223232323232323232424B4
:102100002424242424242425252525252525252685
:102110002626262626262627272727272727272855
:102120002828282828282829292929292929292A25
:102130002A2A2A2A2A2A2A2B2B2B2B2B2B2B2B2CF5
:102140002C2C2C2C2C2C2C2D2D2D2D2D2D2D2D2EC5
:102150002E2E2E2E2E2E2E2F2F2F2F2F2F2F2F3095
:102160003030303030303031313131313131313265
:102170003232323232323233333333333333333435
:102180003434343434343435353535353535353605
:1021900036363636363636373737373737373738D5
:1021A0003838383838383839393939393939393AA5
:1021B0003A3A3A3A3A3A3A3B3B3B3B3B3B3B3B3C75
:1021C0003C3C3C3C3C3C3C3D3D3D3D3D3D3D3D3E45
:1021D0003E3E3E3E3E3E3E3F3F3F3F3F3F3F3F4015
:1021E00040404040404040414141414141414142E5
:1021F00042424242424242434343434343434344B5
:102200004444444444444445454545454545454684
:102210004646464646464647474747474747474854
:102220004848484848484849494949494949494925
:102230004A4A4A4A4A4A4A4A4B4B4B4B4B4B4B4BF6
:102240004C4C4C4C4C4C4C4C4D4D4D4D4D4D4D4DC6
:102250004E4E4E4E4E4E4E4E4F4F4F4F4F4F4F4F96
:102260005050505050505050515151515151515166
:102270005252525252525252535353535353535336
:102280005454545454545454555555555555555506
:1022900056565656565656565757575757575757D6
:1022A00058585858585858585959595959595959A6
:1022B0005A5A5A5A5A5A5A5A5B5B5B5B5B5B5B5B76
:1022C0005C5C5C5C5C5C5C5C5D5D5D5D5D5D5D5D46
:1022D0005E5E5E5E5E5E5E5E5F5F5F5F5F5F5F5F16
:1022E00060606060606060606161616161616161E6
:1022F00062626262626262626363636363636363B6
:102300006464646464646464656565656565656585
:102310006666666666666666676767676767676755
:102320006868686868686868696969696969696925
:102330006A6A6A6A6A6A6A6A6B6B6B6B6B6B6B6BF5
:102340006C6C6C6C6C6C6C6C6D6D6D6D6D6D6D6DC5
:102350006D6E6E6E6E6E6E6E6E6F6F6F6F6F6F6F97
:102360006F70707070707070707171717171717167
:102370007172727272727272727373737373737337
:102380007374747474747474747575757575757507
:1023900075767676767676767677777777777777D7
:1023A00077787878787878787879797979797979A7
:1023B000797A7A7A7A7A7A7A7A7B7B7B7B7B7B7B77
:1023C0007B7C7C7C7C7C7C7C7C7D7D7D7D7D7D7D47
:1023D0007D7E7E7E7E7E7E7E7E7F7F7F7F7F7F7F17
:1023E0007F808080808080808081818181818181E7
:1023F00081828282828282828283838383838383B7
:102400008384848484848484848585858585858586
:102410008586868686868686868787878787878756
:102420008788888888888888888989898989898926
:10243000898A8A8A8A8A8A8A8A8B8B8B8B8B8B8BF6
:102440008B8C8C8C8C8C8C8C8C8D8D8D8D8D8D8DC6
:102450008D8E8E8E8E8E8E8E8E8F8F8F8F8F8F8F96
:102460008F90909090909090909191919191919166
:102470009192929292929292929293939393939337
:102480009393949494949494949495959595959508
:1024900095959696969696969696979797979797D8
:1024A00097979898989898989898999999999999A8
:1024B00099999A9A9A9A9A9A9A9A9B9B9B9B9B9B78
:1024C0009B9B9C9C9C9C9C9C9C9C9D9D9D9D9D9D48
:1024D0009D9D9E9E9E9E9E9E9E9E9F9F9F9F9F9F18
:1024E0009F9FA0A0A0A0A0A0A0A0A1A1A1A1A1A1E8
:1024F000A1A1A2A2A2A2A2A2A2A2A3A3A3A3A3A3B8
:10250000A3A3A4A4A4A4A4A4A4A4A5A5A5A5A5A587
:10251000A5A5A6A6A6A6A6A6A6A6A7A7A7A7A7A757
:10252000A7A7A8A8A8A8A8A8A8A8A9A9A9A9A9A927
:10253000A9A9AAAAAAAAAAAAAAAAABABABABABABF7
:10254000ABABACACACACACACACACADADADADADADC7
:10255000ADADAEAEAEAEAEAEAEAEAFAFAFAFAFAF97
:10256000AFAFB0B0B0B0B0B0B0B0B1B1B1B1B1B167
:10257000B1B1B2B2B2B2B2B2B2B2B3B3B3B3B3B337
:10258000B3B3B4B4B4B4B4B4B4B4B5B5B5B5B5B507
:10259000B5B5B6B6B6B6B6B6B6B6B6B7B7B7B7B7D8
:1025A000B7B7B7B8B8B8B8B8B8B8B8B9B9B9B9B9A9
:1025B000B9B9B9BABABABABABABABABBBBBBBBBB79
:1025C000BBBBBBBCBCBCBCBCBCBCBCBDBDBDBDBD49
:1025D000BDBDBDBEBEBEBEBEBEBEBEBFBFBFBFBF19
:1025E000BFBFBFC0C0C0C0C0C0C0C0C1C1C1C1C1E9
:1025F000C1C1C1C2C2C2C2C2C2C2C2C3C3C3C3C3B9
:10260000C3C3C3C4C4C4C4C4C4C4C4C5C5C5C5C588
:10261000C5C5C5C6C6C6C6C6C6C6C6C7C7C7C7C758
:10262000C7C7C7C8C8C8C8C8C8C8C8C9C9C9C9C928
:10263000C9C9C9CACACACACACACACACBCBCBCBCBF8
:10264000CBCBCBCCCCCCCCCCCCCCCCCDCDCDCDCDC8
:10265000CDCDCDCECECECECECECECECFCFCFCFCF98
:10266000CFCFCFD0D0D0D0D0D0D0D0D1D1D1D1D168
:10267000D1D1D1D2D2D2D2D2D2D2D2D3D3D3D3D338
:10268000D3D3D3D4D4D4D4D4D4D4D4D5D5D5D5D508
:10269000D5D5D5D6D6D6D6D6D6D6D6D7D7D7D7D7D8
:1026A000D7D7D7D8D8D8D8D8D8D8D8D9D9D9D9D9A8
:1026B000D9D9D9DADADADADADADADADBDBDBDBDB78
:1026C000DBDBDBDBDCDCDCDCDCDCDCDCDDDDDDDD4A
:1026D000DDDDDDDDDEDEDEDEDEDEDEDEDFDFDFDF1A
:1026E000DFDFDFDFE0E0E0E0E0E0E0E0E1E1E1E1EA
:1026F000E1E1E1E1E2E2E2E2E2E2E2E2E3E3E3E3BA
:10270000E3E3E3E3E4E4E4E4E4E4E4E4E5E5E5E589
:10271000E5E5E5E5E6E6E6E6E6E6E6E6E7E7E7E759
:10272000E7E7E7E7E8E8E8E8E8E8E8E8E9E9E9E929
:10273000E9E9E9E9EAEAEAEAEAEAEAEAEBEBEBEBF9
:10274000EBEBEBEBECECECECECECECECEDEDEDEDC9
:10275000EDEDEDEDEEEEEEEEEEEEEEEEEFEFEFEF99
:10276000EFEFEFEFF0F0F0F0F0F0F0F0F1F1F1F169
:10277000F1F1F1F1F2F2F2F2F2F2F2F2F3F3F3F339
:10278000F3F3F3F3F4F4F4F4F4F4F4F4F5F5F5F509
:10279000F5F5F5F5F6F6F6F6F6F6F6F6F7F7F7F7D9
:1027A000F7F7F7F7F8F8F8F8F8F8F8F8F9F9F9F9A9
:1027B000F9F9F9F9FAFAFAFAFAFAFAFAFBFBFBFB79
:1027C000FBFBFBFBFCFCFCFCFCFCFCFCFDFDFDFD49
:1027D000FDFDFDFDFEFEFEFEFEFEFEFEFFFFFFFF19
:1027E000FF4572726F723A20496E636F7272656351
:1027F0007420757365206F6620636F6D6D616E6404
:102800002E0D0A004572726F723A20496E636F7224
:102810007265637420757365206F6620636F6D6DDC
:10282000616E642E0D0A004572726F723A20496E15
:10283000636F727265637420757365206F662063C1
:102840006F6D6D616E642E0D0A004572726F723A83
:1028500020496E636F727265637420757365206FB3
:102860006620636F6D6D616E642E0D0A0045727295
:102870006F723A20496E636F72726563742075736C
:1028800065206F6620636F6D6D616E642E0D0A00AA
:102890004572726F723A20496E636F72726563742B
:1028A00020757365206F6620636F6D6D616E642E99
:1028B0000D0A004572726F723A20496E636F727230
:1028C00065637420757365206F6620636F6D6D613D
:1028D0006E642E0D0A004572726F723A20496E6363
:1028E0006F727265637420757365206F6620636F05
:1028F0006D6D616E642E0D0A004572726F723A2022
:10290000496E636F727265637420757365206F66BC
:1029100020636F6D6D616E642E0D0A004572726FDB
:10292000723A20496E636F727265637420757365C5
:10293000206F6620636F6D6D616E642E0D0A004519
:1029400072726F723A20496E636F7272656374209F
:10295000757365206F6620636F6D6D616E642E0DFB
:102960000A004572726F723A20496E636F72726527
:10297000637420757365206F6620636F6D6D616E83
:10298000642E0D0A004572726F723A20496E636FB1
:10299000727265637420757365206F6620636F6D56
:1029A0006D616E642E0D0A004572726F723A204995
:1029B0006E636F727265637420757365206F662035
:1029C000636F6D6D616E642E0D0A004572726F72D9
:1029D0003A20496E636F7272656374207573652067
:1029E0006F6620636F6D6D616E642E0D0A00112499
:1029F0001FBECFEFCDBFDFE3DEBF00E00CBF18BED0
:102A000019BE1ABE1BBE28E3A0E0B0E201C01D92B1
:102A1000AF33B207E1F764D50C94FF250C940000A6
:102A20000F93CF93DF931F92CDB7DEB72FB72983D4
:102A3000F8941BBEFC0108ED04BF608389818FBF41
:102A40000F90DF91CF910F9108950F931F93CF9324
:102A5000C82F00E410E0F8016081687F682B80E4F3
:102A600090E0DEDFF80180818C23CF911F910F91E0
:102A70000895CF93DF931F921F92CDB7DEB70E94C8
:102A80002121E0913438F0E0EE5EFF4C808180320D
:102A900029F082EE93E00E94411E1FC00E94212176
:102AA000CE0101960E94521E811105C08FEB93E06A
:102AB0000E94411E12C085E60E94281E89819A81CB
:102AC000682F6F7196958795929582958F7089275B
:102AD0009F70892752D00E94281E0F900F90DF917F
:102AE000CF910895CF93DF9300D01F92CDB7DEB77B
:102AF0000E942121E0913438F0E0EE5EFF4C8081AD
:102B0000803229F08CE993E00E94411E2AC00E9485
:102B10002121CE0101960E94521E811105C089E734
:102B200093E00E94411E1DC0CE0103960E94521EDA
:102B3000811105C086E593E00E94411E12C0898183
:102B40009A81893E23E0920760F4682F6F71969511
:102B50008795929582958F7089279F7089274B81E1
:102B600049D02496CDBFDEBFDF91CF910895E0EC30
:102B7000F1E087858823ECF30895CF93DF93C82F86
:102B8000D62FF5DF20E2C29FC0011124DF718D2B0B
:102B9000E0ECF1E08083892F8F718183128286E0DF
:102BA0008287EF93FF930F932F93EBECF1E008ED07
:102BB00021E004BF20832F910F91FF91EF91848139
:102BC000DF91CF910895D3DF8091CF0181FF11C0B4
:102BD00086E38093CA01EF93FF930F932F93EBEC5F
:102BE000F1E008ED21E004BF20832F910F91FF91C8
:102BF000EF9108951F93CF93DF93C82FD62F142FF3
:102C0000E2DFE0ECF1E083E3828720E2C29FC001D3
:102C10001124DF718D2B8083892F8F718183128224
:102C2000148385E38287EF93FF930F932F93EBEC4D
:102C3000F1E008ED21E004BF20832F910F91FF9177
:102C4000EF91DF91CF911F910895EF92FF920F9333
:102C50001F93CF93DF937C018B0160E080EE3BD22A
:102C60000115110599F0E7010E0D1F1D699181EE07
:102C700032D262E080EE2FD28AE08A95F1F700C06E
:102C800060E080EE28D2C017D10781F761E080EEC6
:102C900022D2DF91CF911F910F91FF90EF90089575
:102CA000CF92DF92EF92FF920F931F93CF93DF9318
:102CB0008C01C62F6A01790160E080EE0CD26C2F86
:102CC00070E06115710599F0E801060F171F699111
:102CD00081EE01D262E080EEFED18AE08A95F1F7C2
:102CE00000C060E080EEF7D1C017D10781F7E11492
:102CF000F104D1F0E601EC0CFD1C60E081EEEBD1BB
:102D000062E080EEE8D18AE08A95F1F700C060E0E9
:102D100080EEE1D185E18A95F1F7000080EEE7D100
:102D20008993EC16FD0649F761E080EED4D1DF917E
:102D3000CF911F910F91FF90EF90DF90CF9008956A
:102D4000BF92CF92DF92EF92FF920F931F93CF9398
:102D5000DF93CDB7DEB7C150D140CDBFDEBF082F66
:102D6000883030F088E774D786E672D780E0A7C055
:102D700060E080EEB0D18FE39FE10197F1F700C0F2
:102D8000000061E080EEA7D186E0898361E070E019
:102D9000CE0101965ADF8FE193E00197F1F700C071
:102DA000000088ED89836894BB24B3F8B00EBA8222
:102DB0001B821C8264E070E0CE01019646DF9FEF2B
:102DC00029EF80E0915020408040E1F700C00000F2
:102DD000E12CF12C15E0005D198321E030E0AE011B
:102DE0004F5F5F4F61E0CA015BDF998190FF4AC08E
:102DF00088E72ED7802F2CD79FEF23EC89E09150C6
:102E000020408040E1F700C000009FEFE91AF90A76
:102E100023E2E216F10401F73EC0E982BA82FC2CFB
:102E2000CB821C8220E031E0AE014F5F5F4F64E057
:102E3000CA0136DFFE01319600E010E081918F3F3C
:102E400069F08AE505D78F2D03D7802F01D7FE01C2
:102E5000E00FF11D8181FCD680E031C00F5F1F4F74
:102E6000011581E0180751F71DC09FEF21EE84E0A6
:102E7000915020408040E1F700C0000088E5E8D68E
:102E800081E01DC09FEF23EC89E0915020408040FD
:102E9000E1F700C00000C12CD12C0F2EF3E0EF2E83
:102EA000F02DBBCF8AE7D4D68F2DD2D69FEFC91A8B
:102EB000D90AC11421E0D20609F0AFCFD6CFCF5F37
:102EC000DE4FCDBFDEBFDF91CF911F910F91FF90FD
:102ED000EF90DF90CF90BF9008958F929F92AF9226
:102EE000BF92CF92DF92EF92FF920F931F93CF93F7
:102EF000DF93CDB7DEB7C450D140CDBFDEBF6C018C
:102F00008B01C11488E0D80628F086E4A1D686E4B7
:102F10009FD680C086E0898361E070E0CE01019693
:102F200094DE82E089836894BB24B3F8BD0CBA8236
:102F3000CB821C827801FE0135969E012B5F3E4FAD
:102F4000D8018D918193E217F307D9F764E071E01E
:102F5000CE0101967ADE812C912C0F2EF5E0AF2E5A
:102F6000F02DA98221E030E0AE014F5F5F4F61E0BC
:102F7000CA0196DE898180FF2CC0AFE3BFE11197C3
:102F8000F1F700C00000BFEF8B1A9B0A87E088169C
:102F9000910439F736C09191D7018D917D01981731
:102FA00081F086E755D68C2D53D6DD24F801EC0D43
:102FB000FD1D80814DD6FE01EC0DFD1D818148D6A1
:102FC00029C0BFEFCB1ADB0AC11481E0D80619F77C
:102FD0001DC0AFE3BFE11197F1F700C0000083E02F
:102FE0008983BA82CB821C8220E031E0AE014F5F40
:102FF0005F4F64E0CA0154DEFE013196C12CD12C32
:10300000CACF86E425D686E423D604C086E420D63B
:1030100083E41ED6CC5FDE4FCDBFDEBFDF91CF9104
:103020001F910F91FF90EF90DF90CF90BF90AF90E6
:103030009F908F900895CF93DF93CDB7DEB7DA9549
:10304000CDBFDEBF8FE9898325E030E0AE014F5F61
:103050005F4F61E0CA0124DE898182958F70805DB7
:10306000F7D589818F70805DF3D580E2F1D58A81B3
:1030700082958F70805DECD58A818F70805DE8D5F8
:1030800080E2E6D58B8182958F70805DE1D58B8162
:103090008F70805DDDD580E2DBD58C8182958F706D
:1030A000805DD6D58C818F70805DD2D580E2D0D501
:1030B0008D8182958F70805DCBD58D818F70805D85
:1030C000C7D58AE0C5D58DE0C3D5D395CDBFDEBFCA
:1030D000DF91CF910895809384066093A406E0E683
:1030E000F6E080E885830000868300000895682F5D
:1030F00081E0F1DF84E08093C5078AE08A95F1F7EB
:1031000000C0809128070895CF93DF931F921F92EC
:10311000CDB7DEB70E942121E0913438F0E0EE5EB9
:10312000FF4C8081803221F083E695E0AAD50EC065
:103130000E942121CE010196B5D5811104C080E401
:1031400095E09FD503C0698180E5C5DF0F900F90A2
:10315000DF91CF91089589E47BD58091082878C5C7
:10316000089580913238909133380097A1F02091E2
:10317000600A3091610A2817390768F081E5B7DFE6
:1031800090910828891719F080930828E4DF10929D
:10319000600A1092610A0895CF93DF931F921F92E5
:1031A000CDB7DEB70E942121E0913438F0E0EE5E29
:1031B000FF4C8081803221F08DE195E062D511C015
:1031C0000E942121CE0101966DD5811104C08AEFA4
:1031D00094E057D506C089819A81809332389093C4
:1031E00033380F900F90DF91CF910895CF93DF93F5
:1031F000CDB7DEB72897CDBFDEBF0E942121E09179
:103200003438F0E0EE5EFF4C8081803221F087EDB3
:1032100094E037D532C00E942121CE01079642D5D5
:10322000811104C084EB94E02CD527C0CE01059613
:1032300039D5811104C081E994E023D51EC0CE01A7
:10324000039630D5811104C08EE694E01AD515C0DE
:10325000CE01019627D5811104C08BE494E011D5ED
:103260000CC0698182E637DF6B8183E634DF6D81D4
:1032700084E631DF6F8185E62EDF2896CDBFDEBF85
:10328000DF91CF910895CF93DF931F921F92CDB717
:10329000DEB7D7D7E0913438F0E0EE5EFF4C8081A6
:1032A000803221F088E294E0ECD418C0CAD7CE0175
:1032B0000196F8D4811104C085E094E0E2D40EC0F8
:1032C00089819A81892B39F061E080E604DF698188
:1032D00081E601DF03C060E080E6FDDE0F900F9025
:1032E000DF91CF9108951F920F920FB60F92112484
:1032F00008B60F9218BE8F9380910B30882329F067
:1033000080910B30815080930B308F910F9008BECD
:103310000F900FBE0F901F9018951F920F920FB62F
:103320000F92112408B60F9218BE8F9381E08093FC
:103330000F308F910F9008BE0F900FBE0F901F900F
:103340001895AAECB1E092E09C93E82FF0E084910C
:103350001C920895BF92CF92DF92EF92FF920F934B
:103360001F93CF93DF93E0E5F0E08081826080835C
:10337000818181FFFDCF81E068DBE0E0F6E080EC59
:1033800084838083C0E1C48BE0E2F6E014828FEA9C
:103390008083C48BC68BE0E4F6E014821082E0E602
:1033A000F6E084E084838CED8083E0E8F6E014822C
:1033B0008FEF8083E0EAF6E014828083E0EEF6E0AF
:1033C00014821082C28BC38BC48BC58BC68BC78BF8
:1033D000E0E0F7E014821082E0E2F7E0148210826D
:1033E000E0ECF7E01482D7E0D083C38BE0EEF7E0A7
:1033F0001482108280E2A5DF00E012E0F8018487E9
:1034000081E29FDFF8018587DD24D394D08288E1B3
:10341000818380E28283D48382E080A389E281A3D6
:1034200080E38FDF00E013E0F801818781E389DF2B
:10343000F801808784E385DFF801838785E381DFF6
:10344000F80182870F2EFDE0BF2EF02DB082689428
:10345000CC24C6F8C182C283E12C6894FF24F3F81F
:10346000E08EF18EE28EF38E82E36BDF00E213E0FA
:10347000F801818783E365DFF801808786E361DFF8
:10348000F801838787E35DDFF8018287B082C1821C
:10349000C283E08EF18EE28EF38EF701D08381E756
:1034A00092E086A397A3D682E0E4F8E0D08386A3D7
:1034B00097A3E0E0FAE010A211A2D083E0E4FAE0E2
:1034C00010A211A2D083D093A2007894DF91CF9163
:1034D0001F910F91FF90EF90DF90CF90BF900895D4
:1034E000CF93DF9300D01F92CDB7DEB710920620A6
:1034F00010920220109205201092103081E090E08E
:1035000080933A3890933B3884E090E080930D307C
:1035100090930E30809300209093012010923C38BD
:10352000109207201092353810920C3010920B3008
:1035300011DF109232381092333881E5D8DD809354
:10354000082860E481E3C7DD6CE982E3C4DD60E064
:1035500083E3C1DD00E216E06894FF24F7F841D66A
:1035600080910620882321F018D7109206202CD6AF
:1035700080910220811184D080910F30882359F1ED
:10358000BE016D5F7F4FCE0101966DD280910930F3
:1035900090910A309C01220F331FF901EE5CFF4C21
:1035A00049815A8140835183F901E85FFF4D4B8186
:1035B0005C81408351830196811524E0920728F4B1
:1035C0008093093090930A3004C010920930109211
:1035D0000A3010920F30C5DD80910B308111BFCFC2
:1035E000F801F682BCCF40E050E0BA0120E0E0E014
:1035F000F2E090A1906890A393A190FFFDCF808905
:103600009189480F591F611D711D93A1916093A36A
:103610002F5F203871F7DB01CA01689416F8B69560
:10362000A795979587951694D1F7089561E080E264
:1036300052DD8AE68A95F1F700C060E080E24BDD5A
:103640008AE68A95F1F700C062E080E244DD1092DC
:10365000200A1092210A81E080930220089561E0FF
:1036600080E239DD8AE68A95F1F700C060E080E209
:1036700032DD8AE68A95F1F700C0109202200895A3
:103680007F928F929F92AF92BF92CF92DF92EF92F2
:10369000FF920F931F93CF93DF9381E028DDC82F14
:1036A0008091200A9091210A8A309D4340F08FE357
:1036B000CFD28C2FCDD21092200A1092210AC53081
:1036C00009F05AC0109202208BE211DDC82FD0E021
:1036D0001C2F00278AE20BDDC82FD0E02196C00FF7
:1036E000D11FC11580E1D80710F0C0E0D0E06D2FE8
:1036F00081E1F1DC6C2F80E1EEDC61E082E1EBDC6A
:1037000060E082E1E8DC84E08093C60784E4A0D234
:10371000812C6894992494F80F2EF0EEAF2EF7E0E8
:10372000BF2EF02D0F2EF0E2CF2EF7E0DF2EF02D82
:103730000F2EF0EEEF2EF6E0FF2EF02D00E017E05A
:10374000C0E6D6E06894772476F8F501808580D2CB
:10375000F60180857DD2F70180857AD2F8018085D7
:1037600077D27D8200007E820000F1E08F1A9108FE
:1037700061F761E080E2AFDCDF91CF911F910F91A3
:10378000FF90EF90DF90CF90BF90AF909F908F9081
:103790007F90089590E0FC01F097EE31F10508F07C
:1037A000A6C08827E250FF4F8F4F0C94F6256FEF8D
:1037B00081E291DC6FEF82E28ECC08956FEF81E2BF
:1037C0008ADC6FE782E287CC08956DEF81E283DCCB
:1037D0006FE782E280CC089569EF81E27CDC6FE7DD
:1037E00082E279CC089561EF81E275DC6FE782E2D5
:1037F00072CC089561EE81E26EDC6FE782E26BCC01
:10380000089561EC81E267DC6FE782E264CC0895A1
:1038100061E881E260DC6FE782E25DCC089561E0FF
:1038200081E259DC6FE782E256CC089561E081E2E3
:1038300052DC6EE782E24FCC089561E081E24BDC1E
:103840006CE782E248CC089561E081E244DC68E7FD
:1038500082E241CC089561E081E23DDC60E782E2F2
:103860003ACC089561E081E236DC60E682E233CC56
:10387000089561E081E22FDC60E482E22CCC0895BF
:1038800061E081E228DC60E082E225CC089581E7F6
:1038900092E0809366089093670808958AE196E025
:1038A0008093660890936708089585E39CE0809371
:1038B00066089093670808958AE698E18093660801
:1038C00090936708089589E09DE38093660890933C
:1038D0006708089582E19AE78093660890936708E5
:1038E000089584E294EF80936608909367080895A2
:1038F0001F93CF93DF931F921F92CDB7DEB7A1D452
:10390000E0913438F0E0EE5EFF4C8081803221F0AF
:1039100088E596E0B6D130C094D4E0913438F0E038
:10392000EE5EFF4C10818DD4E0913438F0E0EE5E15
:10393000FF4C8081803221F085E396E0A2D11CC04B
:1039400080D4CE010196AED18823B1F01F7D113411
:1039500039F489819A8180931803909319030CC0DC
:10396000123439F489819A8180931A0390931B034E
:1039700003C082E196E085D10F900F90DF91CF9147
:103980001F910895E0913438F0E0EE5EFF4C8081A5
:103990008032F1F456D4E0913438F0E0EE5EFF4C22
:1039A0008081823421F480E8809305060895823670
:1039B00021F480E8809306060895813421F480E4A0
:1039C000809305060895813619F480E480930606F5
:1039D0000895E0913438F0E0EE5EFF4C8081803253
:1039E00091F42FD4E0913438F0E0EE5EFF4C80810A
:1039F000823421F482E0809325060895813419F4FD
:103A000081E0809325060895E0913438F0E0EE5E81
:103A1000FF4C8081803291F414D4E0913438F0E08E
:103A2000EE5EFF4C8081823421F482E08093260692
:103A30000895813419F481E08093260608950FDEFD
:103A400010923D3810923E381092093010920A3090
:103A500010920F3082E08093460808951092460835
:103A600010920F300895DF92EF92FF920F931F9301
:103A7000CF93DF938C01EB01FC011082118218823D
:103A800019826894EE24E3F8F12C61E084E323DBEF
:103A9000FAE0FA95F1F700C060E084E31CDB86E30E
:103AA00026DBD82E85E323DBF80120813181280F26
:103AB000311D8D2D90E0982F8827820F931F8083D2
:103AC000918388E314DBD82E87E311DB28813981C9
:103AD000280F311D8D2D90E0982F8827820F931F7E
:103AE00088839983F1E0EF1AF10879F6F801808173
:103AF00091819695879596958795969587958083DC
:103B000091838881998196958795969587959695C5
:103B1000879588839983DF91CF911F910F91FF90B3
:103B2000EF90DF90089520913D3830913E3880919C
:103B3000093090910A302817390709F03BC047C077
:103B400083E586D0E0913D38F0913E38EE0FFF1FBF
:103B5000EE5CFF4C81817CD0E0913D38F0913E38A5
:103B6000EE0FFF1FEE5CFF4C808172D0E0913D387C
:103B7000F0913E38EE0FFF1FE85FFF4D818168D066
:103B8000E0913D38F0913E38EE0FFF1FE85FFF4DAA
:103B900080815ED080913D3890913E38019680932F
:103BA0003D3890933E388115944020F010923D3876
:103BB00010923E3820913D3830913E388091093046
:103BC00090910A302817390709F0BACF089583E792
:103BD0003FC00895CF93DF9300D000D0CDB7DEB7BC
:103BE00030D3E0913438F0E0EE5EFF4C80818032DB
:103BF00021F08FEE95E045D025C023D3CE01059668
:103C000051D0811104C08CEC95E03BD01BC0CE019B
:103C1000039648D0811104C089EA95E032D012C0E1
:103C2000CE0101963FD0811104C086E895E029D0ED
:103C300009C0698181E34FDA6B8182E34CDA6D81DF
:103C400083E349DA2696CDBFDEBFDF91CF91089599
:103C500094E0909365069FEF90934006E0E6F6E0CF
:103C6000908591FDFDCFA0E6B6E098E015969C9377
:103C70001597E0E4F6E0848316969C9314821082F4
:103C80000895CF93DF93EC012196FC018491882362
:103C900031F0DEDFFE01849121968111FACFDF91B0
:103CA000CF9108958F929F92AF92BF92CF92EF9251
:103CB000FF920F931F93CF93DF93E0913438F0E09E
:103CC000EE5EFF4CD081C0EDCD0FCB3008F072C15D
:103CD0004C01B7D2E0913438F0E0EE5EFF4C108139
:103CE000103221F01A3011F01D3039F4D0E0F40117
:103CF000C083D183A6D281E068C100ED010F0B30F3
:103D000008F05AC19ED2E0913438F0E0EE5EFF4CEC
:103D1000F080F0E2FF1631F02AE0F21619F03DE0F3
:103D2000F31222C0202F30E0F40120833183CC2312
:103D3000C1F0C150F1F79FEC9D0F892F90E0AC01CD
:103D4000440F551F880F991F880F991F880F991FBF
:103D5000840F951F265F3F4F820F931FF4018083CE
:103D600091836FD281E031C10F2EF0EDCF2EF02D77
:103D7000CF0CFAE0FC1508F421C163D2E09134388D
:103D8000F0E0EE5EFF4CB08020E2B21631F03AE097
:103D9000B31619F04DE0B41234C04C2D50E0F401CC
:103DA000408351830023C1F00150F1F72FEC210F24
:103DB000822F90E09C01220F331F880F991F880FDC
:103DC000991F880F991F820F931F465F5F4F840FC3
:103DD000951FF40180839183CC2381F0F4018081CD
:103DE0009181C150F1F78C599F4FD153F4E6DF9F79
:103DF000800D911D1124F4018083918322D281E0F2
:103E0000E4C00F2EF0EDAF2EF02DAB0CFAE0FA155A
:103E100008F4D6C016D2E0913438F0E0EE5EFF4CE4
:103E20008081803229F08A3019F08D3009F04BC042
:103E30002A2D30E0F40120833183CC20C1F0CA94D4
:103E4000C110FDCF8FEC8F0D90E0AC01440F551FDA
:103E5000880F991F880F991F880F991F840F951F2E
:103E6000265F3F4F820F931FF401808391830023CD
:103E700089F0F401808191810150F1F78C599F4FB5
:103E80002FEC210FF4E62F9F800D911D1124F401DA
:103E900080839183CC23A1F0F40180819181C15072
:103EA000F1F788519C4FD15348EE53E0D49F9001D5
:103EB000D59F300D1124820F931FF40180839183CD
:103EC000C0D181E082C00F2EF0EDEF2EF02DE80E74
:103ED000FAE0FE1508F476C0B4D1E0913438F0E091
:103EE000EE5EFF4C8081803229F08A3019F08D30EF
:103EF00009F06AC02E2D30E0F40120833183AA201E
:103F000081F0AA94A110FDCF8FEC8B0D265F3F4F5F
:103F1000A9016AE0869F400D511D1124F4014083E0
:103F20005183CC20A1F0F40180819181CA94C11009
:103F3000FDCF9C012C593F4F8FEC8F0DA90164E6FA
:103F4000869F400D511D1124F401408351830023AD
:103F5000A9F0F401808191810150F1F788519C4FC3
:103F60002FEC210F68EE73E0269FA001279F500DD4
:103F70001124840F951FF40180839183CC23B9F021
:103F8000F40180819181C150F1F79C01205F384D8F
:103F90009FEC9D0F60E177E2969FA001979F500DE7
:103FA0001124CA01820F931FF4018083918349D1A8
:103FB00081E00BC080E009C080E007C080E005C060
:103FC00080E003C080E001C080E0DF91CF911F91CD
:103FD0000F91FF90EF90CF90BF90AF909F908F90F8
:103FE0000895CF93C82F82958F708A3018F4805D22
:103FF0002FDE02C0895C2CDE8C2F8F708A3018F483
:10400000805D26DE02C0895C23DECF910895E0EC5E
:10401000F7E081E085839AE09A95F1F700C0868306
:10402000089561E080E357C8089560E080E353C8D5
:104030000895CF93DF931F921F92CDB7DEB701D1C2
:10404000E0913438F0E0EE5EFF4C8081803221F068
:104050008DE497E016DE16C0F4D0CE01019622DE84
:10406000811104C08AE297E00CDE0CC089816A816C
:1040700080933A3860933B3889E22DD860913A3882
:1040800088E229D80F900F90DF91CF910895609129
:104090003C3881E068278091353881116E5F8091CE
:1040A000072081116C5F87E216C808952091383887
:1040B0003091393880910D3090910E30820F931FDE
:1040C00080933638909337384091002050910120EA
:1040D000241B350B2093032030930420692F84E2A6
:1040E0000E946B186091363883E20E946B186091D1
:1040F000042086E20E946B186091032085E20C94F4
:104100006B180895CF93DF931F921F92CDB7DEB740
:1041100098D0E0913438F0E0EE5EFF4C8081803240
:1041200021F087E097E0ADDD11C08BD0CE01019684
:10413000B9DD811104C084EE96E0A3DD07C089815A
:104140009A818093383890933938B0DF0F900F9070
:10415000DF91CF910895CF93DF9300D01F92CDB719
:10416000DEB76FD0E0913438F0E0EE5EFF4C808136
:10417000803221F081EC96E084DD20C062D0CE0157
:10418000019690DD811104C08EE996E07ADD16C0BB
:10419000CE01039687DD811104C08BE796E071DDC7
:1041A0000DC089819A8180930020909301208B819A
:1041B0009C8180930D3090930E3078DF2496CDBF94
:1041C000DEBFDF91CF910895E2E1F0E382E390E377
:1041D0001192E817F907E1F7109234381092113074
:1041E0000895CF93DF93A0E6B6E0C0E4D6E094E074
:1041F00020C0188216969C93169780911130E82F54
:10420000F0E02885EE5EFF4C208315969C93159771
:1042100020812A3021F481E0809306200FC08F5F37
:1042200080931130803229F48EEA97E02ADDCCDFCA
:1042300005C018968C91189780FFDBCFDF91CF9146
:104240000895809134388F3118F48F5F809334381B
:10425000089582E4FDDC84E4FBDC89E2F9DC83E29E
:10426000F7DC8DE0F5DC8AE0F3DC10920620ACDFB1
:1042700080910620811105C0B4DF8091062088233B
:10428000D9F3E0913438F0E0EE5EFF4C8081803964
:1042900091F085E4DDDC80E9DBDC87E4D9DCE091CA
:1042A0003438F0E0EE5EFF4C8081D2DC8DE0D0DC73
:1042B0008AE0CECC089582E6CBDC8DE0C9DC8AE0D2
:1042C000C7DC4FEF6DE18FE10E94FA154FEF6EE111
:1042D0008FE10E94FA154FEF6FE18FE10E94FA150E
:1042E00028ED41E020933400409379000895E0E602
:1042F000F6E0808580FDFDCFA0E4B6E01C92E0E60C
:10430000F6E094E09683000018968C9195830895CA
:10431000CF92DF92EF92FF920F931F93CF93DF9391
:10432000CDB7DEB7DA95CDBFDEBF7E0181E0E80E06
:10433000F81EDDDF813229F1883521F4D8DF0E94B3
:10434000A016F7CF8737C1F4D2DFC82ED0DFD12C2B
:10435000DC2CCC24C82A8E010F5F1F4FC8DFF80168
:1043600081938F01EE15FF05C9F7BE016F5F7F4F87
:10437000C6010E946D17DDCF8934D9F60E941B1843
:10438000D8CFD395CDBFDEBFDF91CF911F910F91D5
:10439000FF90EF90DF90CF900895CF93DF9380E868
:1043A0008093250683E080930B30E0913438F0E071
:1043B000EE5EFF4CE0818E2F90E0FC01B197E3357B
:1043C000F10508F04DC18827E45EFE4F8F4F0EC403
:1043D00082E997E056DC81E33BDC8EE239DC82E364
:1043E00037DC89E897E04DDC8FEF0E947718F9DD24
:1043F0008AE02EDC41C186E42BDC8FEF0E94771827
:1044000027DC3AC10E94721537C10E94391534C1A8
:104410008FE31EDC81E00E9477181ADC2DC10FDBD0
:104420002BC104D929C11BD927C162DA25C109DFF3
:10443000E0913438F0E0EE5EFF4C8081ABD91CC1D6
:1044400000DFC7DA19C1FDDEDFDA16C1FADE9ADA5B
:1044500013C1E7DD11C1E9DD0FC1EBDD0DC1D7DD12
:104460000BC150DE09C110923C3811DE05C181E05C
:1044700080933C380CDE00C11092072008DEFCC09F
:1044800081E08093072003DEF7C04DDBF5C0E6DA5C
:10449000F3C081E080933538FADDEEC010923538F4
:1044A000F6DDEAC058DEE8C09ED8C82FD92F86E5D1
:1044B000CFDB8D2FCDDB8C2FCBDBDEC086E6C8DBE0
:1044C00082E30E947718C4DB81E30E947718C0DB87
:1044D00080E30E947718BCDBCFC0B3DEE0913438B4
:1044E000F0E0EE5EFF4CE0818E2F90E0FC01FF9744
:1044F000EC33F10508F0C0C08827E159FE4F8F4F1B
:1045000075C3BDD0B9C0FDD0B7C016D1B5C099DE56
:10451000E0913438F0E0EE5EFF4C8081803341F46E
:1045200068E184E40E946B1881EE97E076D1A4C024
:10453000813341F468E184E40E946B1881EE9FE0CE
:104540006CD19AC0823341F468E184E40E946B1814
:1045500081EE97E162D190C0833341F468E184E455
:104560000E946B1881EE9FE158D186C0843331F4EC
:1045700068E184E40E946B18BAD17EC0853329F4C7
:104580006CE184E40E946B1877C0843409F074C035
:1045900060E00E946B1870C0EAD06EC016D16CC08B
:1045A00049D16AC061D168C029D266C04ADEE091B3
:1045B0003438F0E0EE5EFF4C8081803319F480E007
:1045C0002ED25AC0813309F057C081E028D254C09E
:1045D00038DEE0913438F0E0EE5EFF4C80818033CD
:1045E00019F480E042D248C0813309F045C081E02F
:1045F0003CD242C060D240C024DEE0913438F0E0CA
:10460000EE5EFF4C8081803319F480E07BD234C0B1
:10461000813391F581E076D22FC09AD22DC0BFD2DE
:104620002BC08EE40E947718DCDC26C00E94841820
:1046300023C081E50E947718809308280E94AB1858
:104640001BC00E94CC1818C00E94F61815C00E940A
:10465000431912C0BFDA10C05BDE0EC0FADD0CC019
:1046600080E797E00EDBE0913438F0E0EE5EFF4C3F
:104670008081EEDA8AE0ECDADF91CF910895CF9372
:10468000DF93CDB7DEB72897CDBFDEBFDADDCE0131
:10469000019608DB811104C08BEC99E2F2DA2BC0A1
:1046A000CE010396FFDA811104C088EA99E2E9DAC3
:1046B00022C0CE010596F6DA811104C085E899E2A0
:1046C000E0DA19C0CE010796EDDA811104C082E666
:1046D00099E2D7DA10C06F8180E40E946B186D8177
:1046E00081E40E946B186B8182E40E946B186981DF
:1046F00083E40E946B182896CDBFDEBFDF91CF9177
:104700000895CF93DF931F921F92CDB7DEB799DD47
:10471000CE010196C7DA811104C08FE399E2B1DAC4
:1047200006C089819A8180933803909339030F9052
:104730000F90DF91CF910895CF93DF931F921F9237
:10474000CDB7DEB77EDDCE010196ACDA811104C0B3
:104750008CE199E296DA06C089819A8180933A03C6
:1047600090933B030F900F90DF91CF910895CF93DB
:10477000DF9300D01F92CDB7DEB763DDCE01019687
:1047800091DA811104C089EF98E27BDA18C089813F
:104790009A818115984020F086ED98E272DA0FC078
:1047A000CE0103967FDA811104C083EB98E269DAC7
:1047B00006C0E981FA81E75FF74D8B8180832496FB
:1047C000CDBFDEBFDF91CF9108950F931F93CF939D
:1047D000DF9309E018E2C0E0D0E06C2F85E40E948E
:1047E0006B186D2F86E40E946B18F80161918F01A0
:1047F00087E40E946B186AE184E40E946B1868E108
:1048000084E40E946B182196C115F8E0DF0729F7B0
:10481000DF91CF911F910F910895FC01A9E0B8E2BB
:1048200029E030E384918D933196A217B307D1F735
:10483000CCCF0895CF93DF9387E50ADAC0E0D0E0CC
:104840006C2F85E40E946B186D2F86E40E946B1814
:1048500080E40E947718FCD92196C11588E0D8071A
:1048600079F7DF91CF910895CF92DF92EF92FF9287
:104870000F931F93CF93DF93CDB7DEB7DA95CDBFFC
:10488000DEBF87E00E94A0160F2EF9E0EF2EF8E2BF
:10489000FF2EF02D0F2EC12CF7E0DF2EF02D8E0114
:1048A0000F5F1E4F14C08D918193E017F107D9F768
:1048B000BE016F5F7F4FC6010E946D178FEFC81A50
:1048C000D80AF39488E0C81687E0D80621F0FE01E4
:1048D0003196D701E8CFD395CDBFDEBFDF91CF9121
:1048E0001F910F91FF90EF90DF90CF9008950F935D
:1048F0001F93CF93DF9360E080EE0E946B1860E01F
:1049000081EE0E946B1860E081EE0E946B1861E0FE
:1049100080EE0E946B188FE193E00197F1F700C0E1
:10492000000060E080EE0E946B1863E081EE0E9460
:104930006B1862E080EE0E946B189AE69A95F1F788
:1049400000C060E080EE0E946B186FE081EE0E9474
:104950006B1862E080EE0E946B188AE68A95F1F788
:1049600000C060E080EE0E946B1860E081EE0E9463
:104970006B1862E080EE0E946B189AE69A95F1F748
:1049800000C060E080EE0E946B1860E081EE0E9443
:104990006B1862E080EE0E946B188AE68A95F1F748
:1049A00000C060E080EE0E946B18C9E0D8E209E028
:1049B00010E360E081EE0E946B1862E080EE0E94DE
:1049C0006B189AE69A95F1F700C060E080EE0E94BD
:1049D0006B188AE68A95F1F700C080EE0E9477187E
:1049E0008993C017D10729F761E080EE0E946B1808
:1049F000ECDEDF91CF911F910F91089560910C3003
:104A0000606160930C308EE40E946B1860910C30F2
:104A10006F7E60930C308EE40C946B1808958111B6
:104A200009C060910C306E7F60930C308EE40E9460
:104A30006B180AC0813041F460910C306160609362
:104A40000C308EE40E946B1860910C3068606093AB
:104A50000C308EE40E946B1860910C30677F60937D
:104A60000C308EE40C946B180895811109C060918C
:104A70000C306D7F60930C308EE40E946B180AC07E
:104A8000813041F460910C30626060930C308EE4B0
:104A90000E946B1860910C30686060930C308EE45B
:104AA0000E946B1860910C30677F60930C308EE42D
:104AB0000C946B180895CF93DF9300D01F92CDB75D
:104AC000DEB7BFDBCE010196EDD8811104C080E9CD
:104AD00098E2D7D811C0CE010396E4D8811104C062
:104AE0008DE698E2CED808C06B8188E40E946B18EE
:104AF000698189E40E946B182496CDBFDEBFDF91E7
:104B0000CF910895811109C060910C306B7F609343
:104B10000C308EE40E946B180AC0813041F4609121
:104B20000C30646060930C308EE40E946B186091CE
:104B30000C30686060930C308EE40E946B186091BA
:104B40000C30677F60930C308EE40C946B180895E2
:104B5000CF93DF9300D01F92CDB7DEB772DBCE01CB
:104B60000196A0D8811104C08AE498E28AD811C0C5
:104B7000CE01039697D8811104C087E298E281D8CC
:104B800008C06B818AE40E946B1869818BE40E94E3
:104B90006B182496CDBFDEBFDF91CF910895CF93E0
:104BA000DF9300D01F92CDB7DEB74BDBCE0101966D
:104BB00079D8811104C084E098E263D811C0CE0195
:104BC000039670D8811104C081EE97E25AD808C0CC
:104BD0006B818CE40E946B1869818DE40E946B18D4
:104BE0002496CDBFDEBFDF91CF910895EE0FFF1F5A
:104BF000881F8BBF0790F691E02D1BBE1994F89487
:024C0000FFCFE4
:00000001FF
